:020000040800F2
:10000000E80600201D3E0008FD2C0008FF2C00081B
:10001000032D0008072D00080B2D0008000000002C
:100020000000000000000000000000000F2D00088C
:10003000112D000800000000132D0008152D0008E8
:10004000373E0008373E0008373E0008373E0008BC
:10005000373E0008373E0008373E0008373E0008AC
:10006000373E0008373E0008373E0008373E00089C
:10007000373E0008373E0008373E0008373E00088C
:10008000373E0008373E0008373E0008373E00087C
:10009000373E0008373E0008373E00083F2D000875
:1000A000373E0008373E0008373E0008373E00085C
:1000B000373E0008373E0008373E0008373E00084C
:1000C000373E0008373E0008373E0008373E00083C
:1000D000373E0008373E0008373E0008373E00082C
:1000E0005B2D0008373E0008373E0008373E000809
:1000F000373E0008373E0008373E0008373E00080C
:10010000373E0008373E0008373E0008373E0008FB
:10011000373E0008373E0008373E0008373E0008EB
:10012000373E0008373E0008373E0008373E0008DB
:10013000373E0008373E0008373E0008373E0008CB
:10014000373E0008373E0008373E0008373E0008BB
:10015000373E0008373E0008373E0008373E0008AB
:10016000373E0008373E0008373E0008373E00089B
:10017000373E0008373E0008373E0008373E00088B
:10018000373E0008373E000800F002F800F058F84B
:100190000AA090E8000C82448344AAF10107DA45E2
:1001A00001D100F04DF8AFF2090EBAE80F0013F0DC
:1001B000010F18BFFB1A43F0010318473C5E000013
:1001C0005C5E0000103A24BF78C878C1FAD85207A4
:1001D00024BF30C830C144BF04680C6070470000C1
:1001E0000023002400250026103A28BF78C1FBD840
:1001F000520728BF30C148BF0B607047662905F021
:100200001185642904F01080632904F0E6847329C1
:1002100004F0EB84002070471FB505F0FEFC04F0ED
:1002200015FD04000020002105F06AFC401C606000
:100230000020002105F04EFCE0601FBD10B510BD90
:1002400004F042FE1146FFF7E7FF02F0FBFC05F069
:1002500047F803B4FFF7F2FF03BC02F090FF000081
:1002600032490143324A1160704770B500210023C2
:100270000F22C4781CB32E4C246804F4E064C4F547
:10028000E064C4F30721C1F10404E3B20A414478F5
:100290009C40E1B28478144021430C07210E254C88
:1002A00005786155047804F01F050124AC400578F9
:1002B0006D11AD0005F1E025C5F8004109E00478B5
:1002C00004F01F050124AC401B4D0678761145F85B
:1002D000264070BD194A0A400243154B1B1F1A6085
:1002E000704739B1124A121D12680243104B1B1D90
:1002F0001A6006E00E4A121D126882430C4B1B1D49
:100300001A607047042808D14FF0E021096941F0D4
:1003100004014FF0E022116107E04FF0E02109698C
:1003200021F004014FF0E022116170470000FA054E
:100330000CED00E000E400E080E100E080FFFF1F42
:1003400010B50121080200F01BFE00214FF480705F
:1003500000F016FE10BD30B50246002000235068A4
:10036000F84C20400D790C6844EA05242043506085
:100370009068F54C2040D1E903542C438D682C4300
:100380004D7944EA450420439060D06A20F470001F
:100390000C7D641EE4B2234340EA0350D06230BDBA
:1003A00000210160017141718160C1600161012121
:1003B000017570470021E54A1168E54A1140D0E90E
:1003C00000231A4383681A43C3681A431143E14A5E
:1003D000C2F8041370470021016041608160C16070
:1003E000704721B1826842F00102826003E08268B6
:1003F00022F00102826070470A4600214168D64B14
:1004000019401143416070474162826270470A4659
:100410000021416821F01F0111434160704738B14C
:10042000CA49096841F40001CA4AC2F8041306E047
:10043000C649096821F40001C64AC2F8041370478E
:1004400038B1C249096841F48001C24AC2F80413B4
:1004500006E0BE49096821F48001BE4AC2F80413CF
:100460007047F0B504460D4600200021092D11DD2E
:10047000E068A5F10A0606EB4607072606FA07F12B
:100480008843A5F10A0606EB460603FA06F108437F
:10049000E0600CE0206905EB4507072606FA07F146
:1004A000884305EB450603FA06F108432061072A55
:1004B0000FDA606B561E06EB86071F2606FA07F159
:1004C0008843561E06EB860605FA06F1084360636C
:1004D00022E00D2A0FDA206BD61F06EB86071F26B7
:1004E00006FA07F18843D61F06EB860605FA06F1E1
:1004F0000843206310E0E06AA2F10D0606EB8607D0
:100500001F2606FA07F18843A2F10D0606EB8606C0
:1005100005FA06F10843E062F0BD816841F08041D0
:1005200081607047014600208A6802F480020AB1A7
:10053000012000E00020704721B1826842F480620F
:10054000826003E0826822F480628260704721B199
:10055000826842F00202826003E0826822F00202B6
:100560008260704710B50A4600210023416821F4DB
:100570006041531E41EA4331416010BD21B14268E0
:1005800042F40062426003E0426822F4006242608A
:1005900070470146C86C80B270476C48001D006807
:1005A000704721B1826842F48072826003E0826801
:1005B00022F480728260704721B1826842F4007236
:1005C000826003E0826822F400728260704738B172
:1005D0005E49096841F400515E4AC2F8041306E01E
:1005E0005A49096821F400515A4AC2F80413704765
:1005F000F0B504461546002000220026092911DD29
:10060000E068A1F10A0707EB470C072707FA0CF28D
:100610009043A1F10A0707EB470703FA07F21043DB
:10062000E0600CE0206901EB410C072707FA0CF2AF
:10063000904301EB410703FA07F210432061A06BDE
:10064000C0F30156EF1C06F1010CA7EB0C0707EBFA
:10065000870C1F2707FA0CF29043EF1C06F1010CE0
:10066000A7EB0C0707EB870701FA07F21043A0631B
:10067000F0BD10B50A4600210023816B21F4401122
:10068000531E41EA0351816310BD08B50023009356
:100690000090009B0B440093009B1A6008BD0A4623
:1006A0000021816821F470211143816070470A465E
:1006B0000021816821F440111143816070478168F5
:1006C00041F4800181607047014600208A6802F48D
:1006D00080020AB1012000E00020704721B1426889
:1006E00042F48062426003E0426822F48062426029
:1006F000704721B1426842F48052426003E0426890
:1007000022F480524260704708B5024600200090F3
:10071000009201F12800009B1844009000980068A6
:1007200080B208BD10B50B460021D9B2012404FAED
:1007300001F11AB144680C43446002E044688C4300
:10074000446010BDFFFEFFFCFDF7FFC00423014025
:10075000E030FCFF00200140FFFD3FFF024600208B
:1007600013680B400BB1012000E000207047CA4322
:100770000260704770B502460020002300240B126F
:10078000556801268E4005EA060415681D4015B11E
:100790000CB1012000E0002070BD00220A12D343FA
:1007A00003607047002044490860091D0860091D66
:1007B0000860091D086041483F49143108607047CE
:1007C00000213D498279002A3AD00A46126803681E
:1007D0009A430B461A600A1D126803689A430B1D60
:1007E0001A60027911440A6803681A430A60324A9F
:1007F0000832126803689A432F4B08331A601A1D97
:10080000126803689A432C4B0C331A604279102A01
:100810000ED11A1F126803681A43274B08331A6057
:100820001A1D126803681A43234B0C331A600DE03B
:100830002149427911440A6803681A430A6005E0B5
:10084000027911440A6803689A430A6070470021DC
:10085000016001710C2141710021817170471649BD
:10086000103109680143144A103211607047014683
:100870000020114A143212680A400AB1012000E037
:10088000002070470C491431086070470146002071
:100890000022094B1B6803EA0102074B14331B6853
:1008A0000B4013B10AB1012000E00020704702495B
:1008B0001431086070470000003C0140FFFF7F00DA
:1008C00010B504468C48844208D10121084600F046
:1008D00000FB0021012000F0FCFA5EE08748844222
:1008E00008D10121022000F0F4FA0021022000F0DA
:1008F000F0FA52E08248844208D10121042000F03D
:10090000E8FA0021042000F0E4FA46E07D48844241
:1009100008D10121082000F0DCFA0021082000F0B5
:10092000D8FA3AE07848844208D10121102000F03A
:10093000D0FA0021102000F0CCFA2EE07348844257
:1009400008D10121202000F0C4FA0021202000F06D
:10095000C0FA22E06E48844208D10121402000F014
:10096000B8FA0021402000F0B4FA16E06948844249
:1009700008D10121802000F0ACFA0021802000F095
:10098000A8FA0AE06448844207D10121801500F0EA
:10099000A0FA0021A01500F09CFA10BDF0B50A469F
:1009A00000210023002400BF3DE0012505FA01F3EA
:1009B000156805EA03049C4234D105684F000326FC
:1009C000BE40B543056015794E00B5400668354315
:1009D00005601579012D02D01579022D16D1856893
:1009E0004F000326BE40B543856055794E00B540A3
:1009F000866835438560456801268E40B54345606D
:100A0000456896798E40B6B235434560C5684F005B
:100A10000326BE40B543C560D5794E00B540C668D3
:100A20003543C560491C1029BFD3F0BD4FF6FF7197
:100A300001600021017141718171C171704708B578
:100A40004FF480320092009A0A430092009AC261E9
:100A5000C161009AC261C2690092C269009208BD78
:100A60000246002013690B400BB1012000E000207A
:100A700070470146086980B27047024600205369FA
:100A80000B400BB1012000E000207047014648698F
:100A900080B2704701837047418370470AB1018378
:100AA00000E0418370474161704742694A404261BA
:100AB0007047F0B5002300244D07ED0E02FA05F350
:100AC000CE1000F1200555F826504E07F70E0F26E0
:100AD000BE40B543CF1000F1200646F82750CE1097
:100AE00000F1200555F8265045EA0304CE1000F128
:100AF000200545F82640F0BD0000024000040240F9
:100B000000080240000C02400010024000140240A5
:100B100000180240001C024000200240FA48006811
:100B200040F00100F84908600020F74908310860EA
:100B3000F5480068F5490840F3490860F448091D84
:100B40000860081F006820F48020091F086000204A
:100B5000ED490C31086070470021EB4A921C11707E
:100B600011460870704710B501460022002300208E
:100B70004A11012A02D1E44C236808E0022A03D179
:100B8000E14C7034236802E0DF4C7434236801F0D8
:100B90001F02012494401C400CB1012000E0002001
:100BA00010BD38B5002000900024002500BF312082
:100BB000FFF7D9FF05460098401C00900098B0F55B
:100BC000A06F01D0002DF2D03120FFF7CCFF08B18B
:100BD000012400E00024204638BD01460020CA4A16
:100BE000106820F0F80040EAC10010607047C94961
:100BF000086070470021C44A7032117011700128DA
:100C000002D004280AD104E00121BF4A70321170D9
:100C100005E00521BC4A7032117000E000BF00BF42
:100C20007047BD490860704770B5049C41EA821561
:100C30000126C6EB530645EA0645054345EA046529
:100C4000B14E361D356070BDB249086670478201ED
:100C500042EA0172AC4B84331A607047AD49886632
:100C60007047AC49C864704702460020A64B083361
:100C7000186820F0EC6042EA01031843A24B0833E5
:100C800018607047024600209F4B0833186820F018
:100C9000784042EA010318439B4B083318607047C1
:100CA00001460020984A0832106820F003000843EB
:100CB0001060704794480830006800F00C007047DE
:100CC00001460020904A0832106820F0F0000843E6
:100CD00010607047014600208B4A0832106820F4EB
:100CE000E05008431060704701460020864A0832F1
:100CF000106820F4604040EAC10010607047F0B511
:100D00000021002200240225002602237E4F0837FE
:100D10003F6807F00C0121B1042905D0082937D11B
:100D200005E07E4F076036E07D4F076033E0764F89
:100D30003F1D3F68C7F38056734F3F1D3F6807F064
:100D40003F036EB1764FB7FBF3F7DFF8BCC10CF190
:100D5000040CDCF800C0CCF3881C07FB0CF40CE09E
:100D60006E4FB7FBF3F7DFF8A0C10CF1040CDCF811
:100D700000C0CCF3881C07FB0CF4634F3F1D3F6899
:100D8000C7F301477F1C7D00B4FBF5F7076002E065
:100D9000624F076000BF00BF5B4F08373F6807F036
:100DA000F00109095F4F7A5C0768D7404760564FEA
:100DB00008373F6807F4E051890A5A4F7A5C476860
:100DC000D7408760504F08373F6807F46041490BB0
:100DD000544F7A5C4768D740C760F0BD002100F4EB
:100DE0004072B2F5407F0AD1474A0832116821F4B7
:100DF000F8114D4A02401143434A08321160424AF9
:100E000070321268C0F30B031A433F4B70331A6001
:100E1000704741494439086070473F49403908608C
:100E2000704742490860704739B1374A303212681A
:100E30000243354B30331A6006E0334A30321268D1
:100E40008243314B30331A60704739B12E4A343205
:100E5000126802432C4B34331A6006E02A4A3432BB
:100E600012688243284B34331A60704739B1264ADE
:100E7000383212680243244B38331A6006E0224AA3
:100E8000383212688243204B38331A60704739B1C8
:100E90001D4A4032126802431B4B40331A6006E081
:100EA000194A403212688243174B40331A60704728
:100EB00039B1154A443212680243134B44331A6065
:100EC00006E0114A4432126882430F4B44331A60E1
:100ED000704739B10C4A1032126802430A4B103382
:100EE0001A6006E0084A103212688243064B10333B
:100EF0001A607047E1B1044A143212680243024B8F
:100F000014331A6019E0000000380240FFFFF6FEBB
:100F10001030002400004742800E47420024F400B5
:100F200000127A0000000020FFFCFF0F5C01474226
:100F30005B4A126882435A4B1A60704739B1584A6B
:100F4000121D12680243564B1B1D1A6006E0544ADC
:100F5000121D12688243524B1B1D1A60704739B133
:100F60004F4A0C32126802434D4B0C331A6006E0B4
:100F70004B4A0C3212688243494B0C331A6070475B
:100F800039B1474A103212680243454B10331A6098
:100F900006E0434A103212688243414B10331A6014
:100FA000704739B13E4A3C32126802433C4B3C33F5
:100FB0001A6006E03A4A3C3212688243384B3C33AE
:100FC0001A60704739B1364A403212680243344BD6
:100FD00040331A6006E0324A403212688243304B96
:100FE00040331A60704739B12D4A443212680243C7
:100FF0002B4B44331A6006E0294A4432126882437C
:10100000274B44331A60704739B1254A4C32126875
:101010000243234B4C331A6006E0214A4C321268DB
:1010200082431F4B4C331A60704739B11C4A50320F
:10103000126802431A4B50331A6006E0184A5032C5
:1010400012688243164B50331A60704739B1144A04
:10105000D21F12780243124BDB1F1A7006E0104AAF
:10106000D21F127882430E4BDB1F1A7070470C4858
:101070006030006840F08070094960310860704756
:1010800001460020064A083A12680A400AB10120C7
:1010900000E0002070470249891F08707047000077
:1010A0001438024010B50446F748844208D10121A3
:1010B0008014FFF765FF0021A014FFF761FF16E021
:1010C000F248844208D101210014FFF748FF0021B3
:1010D0002014FFF744FF0AE0ED48844207D10121C4
:1010E000C013FFF73CFF0021E013FFF738FF10BDEE
:1010F00010B50022028802F441520B884C88234329
:101100008C882343CC8823430C8923434C89234375
:101110008C892343CC8923431A430280838B4FF26B
:10112000FF74234083830B8A038210BD2DE9F04FA7
:101130000025022300240127002200269446904621
:101140009146B0F81CA04FF2400B0AEA0B0AA0F837
:101150001CA04FF0020AA0F820A0858BD1F808A0AF
:10116000BAF1020F01D100BF6CE0B1F804A0BAF1EE
:10117000000F01D1012700E00227DFF818A3DAF8F9
:1011800000A00AF4000ABAF1000F09D0DFF804A3A6
:10119000DAF800A02AF4000ADFF8F8B2CBF800A0D1
:1011A000DFF8F0A20AF17C0ADAF800A0CAF3881886
:1011B000DFF8E0A20AF17C0ADAF800A0CAF30279AB
:1011C000DFF8D0A2AAF1040ADAF800A00AF03F0C76
:1011D000DFF8C4A2BAFBFCFA0AFB08FABAFBF9F67C
:1011E000B1F806A0BAF5007F0ED14FEA162A0AEB35
:1011F0008A0A4FEA4A0AD1F808B0BAFBFBFA0AF1A8
:10120000050A1FFA8AF20FE04FEA471AB6FBFAFA0C
:101210000AEB8A0A4FEA4A0AD1F808B0BAFBFBFA8D
:101220000AF1050A1FFA8AF24FF00A0AB2FBFAF233
:1012300002F00104A2EB040ACAF34F034FF6FF7A4F
:101240000AEA0424022B01DBFF2B01DD0223002428
:10125000B1F806A04AEA040A4AEA030AA0F820A064
:10126000B1F804A0B1F80CB04AEA0B0AB1F802B028
:101270004AEA0B0AB1F800B04AEA0B0A4AF4006ADB
:101280004AEA05058583BDE8F08F00210180418091
:101290008180C180018141818181C18107210182D9
:1012A00070470021018041808180C18002218160DE
:1012B00000218181704721B1028842F04002028002
:1012C00004E002884FF6BF731A400280704721B1D4
:1012D000828B42F48062828304E0828B4FF6FF337C
:1012E0001A408283704702884FF2FF731A400280CF
:1012F00002880A4302807047B1F5804F04D102880A
:1013000042F48042028004E002884BF6FF731A40E8
:10131000028070474FF6FF62914204D0028842F487
:101320008072028004E002884FF6FF631A40028058
:10133000704721B1828842F00402828004E08288F2
:101340004FF6FB731A408280704721B1828842F0C9
:101350001002828004E082884FF6EF731A40828088
:10136000704730B500220023848B4FF240052C409B
:10137000848302240484828B0C88B4F5007F01D01E
:101380000C8814B94FF4807308E00C88B4F5407FE2
:1013900003D00C88B4F5807F00D100238C888D8920
:1013A0002C434D882C431C4344F400642243828325
:1013B00030BD0146888970478181704721B102881C
:1013C00042F40052028004E002884DF6FF731A4096
:1013D00002807047018841F48051018070470246C5
:1013E0000020012901D0108B00E0908A704701464F
:1013F000088A70471AB183880B43838002E0838890
:101400008B438380704730B5002400230C110125E5
:10141000A540ABB21AB185881D43858002E085885E
:101420009D43858030BD0246002013890B400BB1DF
:10143000012000E000207047CA4302817047F0B5E8
:101440000246002000240023002501F00F0701269A
:10145000BE40B4B20B1101269E40B3B2968806EA94
:1014600003051689264016B10DB1012000E00020C9
:10147000F0BD10B5002201F00F040123A3409AB281
:10148000D343038110BD000000300140003800400C
:10149000003C00400838024000127A0010B50121DB
:1014A0008803FFF76DFD00214FF48040FFF768FDD2
:1014B00010BD1A490860704730B500228B071C0F19
:1014C0000F2303FA04F2154B08338C1053F8243021
:1014D0009343124C08348D1044F8253023468C1069
:1014E00053F824308C07240F00FA04F423430B4CE8
:1014F00008348D1044F8253030BD09490860704724
:10150000084908607047002004492031096801F447
:10151000807109B1012000E00020704700380140CF
:10152000DC0027420004274210B50446FE488442EE
:1015300008D101210846FFF723FD00210120FFF714
:101540001FFD9DE0B4F1804F08D101210846FFF74F
:1015500006FD00210120FFF702FD91E0F3488442DF
:1015600008D101210220FFF7FAFC00210220FFF739
:10157000F6FC85E0EE48844208D101210420FFF703
:10158000EEFC00210420FFF7EAFC79E0E948844200
:1015900008D101210820FFF7E2FC00210820FFF715
:1015A000DEFC6DE0E448844208D101211020FFF701
:1015B000D6FC00211020FFF7D2FC61E0DF48844216
:1015C00008D101212020FFF7CAFC00212020FFF7CD
:1015D000C6FC55E0DA48844208D101210220FFF719
:1015E000CFFC00210220FFF7CBFC49E0D548844224
:1015F00009D101210804FFF7C3FC00214FF480301A
:10160000FFF7BEFC3CE0D048844209D101214804E8
:10161000FFF7B6FC00214FF40030FFF7B1FC2FE0DC
:10162000CA48844209D101218804FFF7A9FC00219E
:101630004FF48020FFF7A4FC22E0C548844208D183
:1016400001214020FFF78BFC00214020FFF787FCA1
:1016500016E0C048844208D101218020FFF77FFCBA
:1016600000218020FFF77BFC0AE0BB48844207D1C1
:1016700001218015FFF773FC0021A015FFF76FFC17
:1016800010BD00220288A84B98420ED0AC4B984265
:101690000BD0B0F1804F08D0A44B984205D0A44B9A
:1016A000984202D0A34B984204D14FF68F731A4050
:1016B0004B881A43A04B984207D0A04B984204D0C5
:1016C0004FF6FF431A400B891A4302804B68C362EE
:1016D0000B880385944B984202D0994B984201D1D4
:1016E0008B7A03860123838270474FF0FF3141607C
:1016F00000210180018141808172704701858282D1
:1017000070470A46002101884FF68F731940114334
:101710000180704741627047C16270470146486A64
:1017200070470146088D704721B1028842F00202DD
:10173000028004E002884FF6FD731A400280704771
:1017400021B1028842F00402028004E002884FF6D0
:10175000FB731A400280704721B1028842F0800278
:10176000028004E002884FF67F731A4002807047BF
:1017700002884FF6F7731A40028002880A430280FB
:10178000704702884FF6FF431A40028002880A43DE
:101790000280704721B1028842F00102028004E019
:1017A00002884FF6FE731A400280704770B500241D
:1017B00000220023058C4FF6FE7635400584028C0E
:1017C0008388048B4FF68F752C40B51E2C400D88F6
:1017D0002C43751E2A408D892A434D882A43524D39
:1017E000A84202D0564DA84213D14FF6F7752A40B1
:1017F000CD892A434FF6FB752A408D882A434FF640
:10180000FF652B404FF6FF552B400D8A2B434D8A29
:101810002B43838004838D684563028470BD70B55B
:10182000002400220023058C4FF6EF763540058416
:10183000028C8388048B48F6FF752C404FF6FF45D9
:101840002C400D884FF6FF7606EA05252C434FF60F
:10185000DF752A408D8906EA05152A434D8806EA78
:1018600005152A43304DA84202D0354DA8421DD15E
:101870004FF67F752A40CD894FF6FF7606EA0515AB
:101880002A434FF6BF752A408D8806EA05152A437C
:101890004FF6FF352B404FF2FF752B400D8A06EABD
:1018A00085052B434D8A06EA85052B4383800483F7
:1018B0008D688563028470BD70B50024002200230A
:1018C000058C4FF6FF6635400584028C8388848B37
:1018D0004FF68F752C404FF6FC752C400D882C432D
:1018E0004FF6FF552A408D894FF6FF7606EA05250B
:1018F0002A434D8806EA05252A430B4DA84202D00B
:101900000F4DA84238D14FF2FF752A40CD894FF6CE
:10191000FF7606EA05252A434FF6FF352A408D88D3
:1019200006EA05252A4319E00000014000040040B2
:1019300000080040000C004000100040001400406F
:1019400000040140004001400044014000480140C3
:1019500000180040001C0040002000404EF6FF75BB
:101960002B404DF6FF752B400D8A06EA05152B43DB
:101970004D8A06EA05152B43838084838D68C563F1
:10198000028470BD70B5002200230024058C4EF641
:10199000FF7635400584038C8488828B48F6FF757A
:1019A0002A404FF6FF452A400D884FF6FF7606EA9B
:1019B00005252A434DF6FF752B408D8906EA05352E
:1019C0002B434D8806EA05352B43FE4DA84202D035
:1019D000FD4DA84208D14BF6FF752C400D8A4FF6FD
:1019E000FF7606EA85152C43848082838D68056422
:1019F000038470BD002101804180818081608181EC
:101A0000C18101824182704770B5034600200024E5
:101A10001846183001258D40ACB21D8CA5431D849D
:101A200009B108290AD100EB610005684FF68F76ED
:101A3000354005600568154305600FE00D1FC5F3CF
:101A40004E052844056848F6FF7635400560056870
:101A50004FF6FF7606EA02263543056070BD416306
:101A6000704781637047C1637047016470470A46DD
:101A70000021018B4FF68F7319401143018370478A
:101A80000A460021018B48F6FF7319404FF6FF7399
:101A900003EA02231943018370470A460021818B20
:101AA0004FF68F7319401143818370470A46002116
:101AB000818B48F6FF7319404FF6FF7303EA022348
:101AC0001943818370470A460021018B4FF6F77353
:101AD00019401143018370470A460021018B4FF2E0
:101AE000FF7319404FF6FF7303EA02231943018382
:101AF00070470A460021818B4FF6F7731940114356
:101B0000818370470A460021818B4FF2FF73194091
:101B10004FF6FF7303EA02231943818370470A4695
:101B20000021018B4FF6FB7319401143018370476D
:101B30000A460021018B4FF6FF3319404FF6FF7321
:101B400003EA02231943018370470A460021818B6F
:101B50004FF6FB7319401143818370470A460021F9
:101B6000818B4FF6FF3319404FF6FF7303EA0223D0
:101B70001943818370470A460021018B4FF67F731A
:101B800019401143018370470A460021018BC1F3BC
:101B90000E014FF6FF7303EA0223194301837047D6
:101BA0000A460021818B4FF67F73194011438183D0
:101BB00070470A460021818BC1F30E014FF6FF7377
:101BC00003EA02231943818370470A460021018CEE
:101BD0004FF6FD7319401143018470470A460021F6
:101BE000018C4FF6F77319401143018470470A4680
:101BF0000021018C4FF6DF7319404FF6FF7303EAA3
:101C000002131943018470470A460021018C4FF6E4
:101C10007F7319404FF6FF7303EA021319430184DF
:101C200070470A460021018C4FF6FF5319404FF6CA
:101C3000FF7303EA02231943018470470A46002117
:101C4000018C4FF2FF7319404FF6FF7303EA022332
:101C50001943018470470A460021018C4DF6FF7339
:101C600019404FF6FF7303EA0233194301847047AA
:101C700030B5002301248C40A3B2048C9C4304841F
:101C8000048C02FA01F5ADB22C43048430BD30B5AA
:101C9000002304248C40A3B2048C9C430484048C51
:101CA00002FA01F5ADB22C43048430BD828B4FF2B1
:101CB000FF331A408283828B4FF6FF7303EA0123BE
:101CC0001A4382837047F0B50C4615460021002266
:101CD0000026078C4EF6FF7C07EA0C070784818BF1
:101CE000028C4FF6FF7707EA043640F6FF4739408B
:101CF0004FF6FF7707EA052739434FF6FF7707EAE4
:101D00000337394345F6FF773A4046F480573A4364
:101D100081830284F0BD828B4FF6F3731A40828375
:101D2000828B0A4382837047F0B50C46154600212A
:101D300000220026078C4FF6FF6C07EA0C07078489
:101D4000818B028C4FF6FF7707EA04264FF60C775B
:101D500039404FF6FF7707EA03172F4339434FF215
:101D6000FF573A4046F480773A4381830284F0BDBE
:101D7000028B4FF2FF331A400283028B4FF6FF7340
:101D800003EA01231A4302837047F0B50C46154657
:101D9000002100220026078C4FF6EF7C07EA0C0793
:101DA0000784018B028C4FF6FF7707EA041640F692
:101DB000FF4739404FF6FF7707EA033739434FF6BD
:101DC000FF7703E0000001400004014007EA052717
:101DD00039434FF65F773A4046F010073A430183A4
:101DE0000284F0BD028B4FF6F3731A400283028B1C
:101DF0000A4302837047F0B50C46154600210022C5
:101E0000068C4FF6FE773E400684018B028C4FF61F
:101E10000C7631407E1C06EA03162E4331434FF602
:101E2000F576324044F00106324301830284F0BD6E
:101E300070B505460C46208850B92389A288618870
:101E40002846FFF7D8FFE1882846FFF7CBFF25E0BB
:101E5000208804280AD12389A28861882846FFF7B0
:101E600094FFE1882846FFF783FF17E020880828C1
:101E70000AD12389A28861882846FFF755FFE188A7
:101E80002846FFF748FF09E02389A2886188284691
:101E9000FFF719FFE1882846FFF708FF70BD002112
:101EA00001804180012181800021C1800181704732
:101EB0002DE9F04105460C4600260127608808B947
:101EC000022600E00026A088012801D1022700E0B8
:101ED00001272088A0B92389A28861882846FFF7B6
:101EE0008AFFE1882846FFF77DFF23893A4631467D
:101EF0002846FFF74AFFE1882846FFF739FF13E03D
:101F00002389A28861882846FFF73FFFE188284699
:101F1000FFF72EFF23893A4631462846FFF76BFF2D
:101F2000E1882846FFF75EFFBDE8F0810146486B77
:101F300070470146886B70470146C86B7047014681
:101F4000086C70470A884B881A438B881A43CB88E1
:101F50001A430B891A434B891A438B891A43A0F8F9
:101F6000442070470021018041808180C18001812F
:101F700041818181704731B1B0F8442042F4004280
:101F8000A0F8442005E0B0F84420C2F30E02A0F807
:101F90004420704721B1828842F00402828004E02C
:101FA00082884FF6FB731A408280704721B1828885
:101FB00042F00102828004E082884FF6FE731A40EC
:101FC000828070471AB183890B43838102E0838941
:101FD0008B43838170478182704702460020138AB9
:101FE0000B400BB1012000E000207047CA43028281
:101FF000704730B50246002000230024158A05EA08
:102000000103958905EA010413B10CB1012000E038
:10201000002030BDCA430282704741EA0203A0F8A3
:10202000483070471AB183890B43838102E083896A
:102030008B438381704721B1828842F008028280FD
:1020400004E082884FF6F7731A4082807047018956
:102050004FF6F8721140018170470A46002101894C
:102060004FF68F73194011430181704730B5044614
:102070000D4629462046FFF7F0FF208940F0070073
:10208000208130BD2DE9F04104460D4616461F461D
:10209000602D06D13B46012231462046FFF775FEF2
:1020A00005E03B46012231462046FFF7A4FE2946C3
:1020B0002046FFF7D2FF208940F007002081BDE8CD
:1020C000F08130B50C4600210189C9B24FF6FF7589
:1020D00005EA0325154325432943018130BD2DE938
:1020E000F04105460E4617469846002443463A46B8
:1020F00031462846FFF7E5FF2C894FF6F87004407B
:1021000044F007044FF68F70044044F070042C81B3
:10211000BDE8F081F0B504460D4616461F463B4625
:10212000324629462046FFF7CCFF208940F4804004
:102130002081F0BD82884FF68F731A40828082889A
:102140000A438280704702894FF6F8731A40028171
:1021500002890A430281704702894FF67F731A4051
:10216000028102890A4302817047F0B50C46154688
:102170001E460021002200230189028B038C4FF6AA
:10218000F877394021434FF6FC473A4040F20117B7
:102190003A434FF6DD773B404FF6FF7707EA0617E5
:1021A0002F433B43018102830384F0BD21B1828828
:1021B00042F08002828004E082884FF67F731A40EA
:1021C00082807047A0F850107047000010B5044698
:1021D000F748844208D101211020FEF7D1FE0021EA
:1021E0001020FEF7CDFE3EE0F248844209D10121E5
:1021F0004804FEF7B4FE00214FF40030FEF7AFFEB6
:1022000031E0ED48844209D101218804FEF7A7FEA0
:1022100000214FF48020FEF7A2FE24E0E74884422C
:1022200009D10121C804FEF79AFE00214FF40020D5
:10223000FEF795FE17E0E248844209D10121080526
:10224000FEF78DFE00214FF48010FEF788FE0AE0B5
:10225000DC48844207D101212020FEF791FE0021B5
:102260002020FEF78DFE10BD2DE9FF4705460E46E6
:102270000024A14600BFA046B08900B100BF2C8A4F
:1022800024F44054F08804432C82AC8941F20C6061
:102290008443B08831890843718908430443AC8181
:1022A000AC8A24F44074B0890443AC826846FEF7DB
:1022B00026FDBF48854202D0C248854202D1DDF8E2
:1022C0000C9001E0DDF80890A88900F4004040B1CE
:1022D00009EBC90000EB091031684900B0FBF1F7C8
:1022E00007E009EBC90000EB091031688900B0FB79
:1022F000F1F76420B7FBF0F004012009642101FB31
:102300001078A88900F4004040B1322000EBC800EA
:10231000B0FBF1F000F00700044308E0322000EBCE
:1023200008106421B0FBF1F000F00F0004432C8191
:10233000BDE8FF874FF41651016000218180C18004
:1023400001810C21418100218181704710B5024635
:102350000020108A20F470600B884C8823438C88FE
:102360002343CC8823431843108210BD00210180F1
:1023700041808180C180704721B1828942F400523E
:10238000828104E082894DF6FF731A408281704792
:10239000028B02F47F420283028B0A43028370475E
:1023A00021B1828942F40042828103E08289C2F332
:1023B0000E028281704721B1828A42F400628282D9
:1023C00004E0828A4FF2FF731A4082827047C1F3A1
:1023D00008028280704701468888C0F30800704771
:1023E000028A4FF6F0731A400282028A0A4302827E
:1023F000704721B1828942F00202828104E0828921
:102400004FF6FD731A408281704782894FF2FF7345
:102410001A40828182890A4382817047028A4FF67C
:10242000DF731A400282028A0A430282704721B196
:10243000028A42F48042028204E0028A4BF6FF7371
:102440001A4002827047818941F001018181704701
:1024500021B1828A42F00802828204E0828A4FF629
:10246000F7731A4082827047028BD2B20283028BCA
:1024700042EA01220283704721B1828A42F020029F
:10248000828204E0828A4FF6DF731A4082827047AC
:1024900021B1828A42F01002828204E0828A4FF6E1
:1024A000EF731A4082827047828A4FF6FB731A409C
:1024B0008282828A0A438282704721B1828A42F0F4
:1024C0000202828204E0828A4FF6FD731A40828201
:1024D00070471AB1838A0B43838202E0838A8B435D
:1024E00083827047F0B503460024002600250020B3
:1024F00040F66A17B94200D100BF1846C1F3421432
:1025000001F01F06012707FA06F5012C01D10C3056
:1025100004E0022C01D1103000E014301AB1076839
:102520002F43076002E00768AF430760F0BD024633
:102530000020B1F5007F00D100BF13880B400BB124
:10254000012000E00020704701F40072B2F5007F26
:1025500000D100BFCA430280704770B50246002414
:1025600000230025002040F66A16B14200D100BFCA
:10257000C1F3421501F01F03012606FA03F3012DF2
:1025800002D19689334006E0022D02D1168A3340EB
:1025900001E0968A33400C12012606FA04F41688EC
:1025A000344013B10CB1012000E0002070BD0000E8
:1025B000001001400044004000480040004C004032
:1025C000005000400014014010B50022002340F6E6
:1025D0006A14A14200D100BF0A1201249440A3B2A0
:1025E000DC43048010BD00007047FE480078401CAA
:1025F00040B2FC49087070470120FB4908707047E1
:102600000246531803EBD3704010704710B5F748DB
:10261000007810B101281ED113E0F548006840F69B
:10262000020188420CDD0120F0490870F148008861
:10263000401C00B2EF4908804FF47A7000F0FDFBB7
:1026400009E0EB48006840F60201884202DA002007
:10265000E649087000BF00BF10BD10B5E64800781D
:1026600010B101283DD13DE04FF40061E348FEF791
:1026700013FA4FF48051E148FEF70EFA4FF48061EF
:10268000DF48FEF709FA4FF40061DD48FEF704FA6F
:102690004FF48051DA48FEF7FFF90421D948FEF7DC
:1026A000FBF94FF48071D548FEF7F6F91021D648B2
:1026B000FEF7F2F94FF48051D348FEF7EDF904210B
:1026C000CE48FEF7E9F94FF40061CF48FEF7E4F990
:1026D000C748006840F60201884202DD0120C64971
:1026E000087044E00120C9490870C102C348FEF7E0
:1026F000D1F94FF48051C148FEF7CCF94FF4806115
:10270000BF48FEF7C7F94FF40061BD48FEF7C2F9B4
:102710004FF48051BA48FEF7BDF90421B948FEF7DD
:10272000B9F94FF48071B548FEF7B4F91021B648F5
:10273000FEF7B0F94FF48051B348FEF7ABF904212E
:10274000AE48FEF7A7F94FF40061AF48FEF7A2F9D3
:102750004FF4FA51881001F00AF9A548006840F6D4
:102760000201884202DA0020A349087000BF00BFBE
:1027700010BD70B5A648007830B101280ED00228EF
:102780001DD0032809D12FE09948006840F60201C6
:10279000884202DD01209E490870C2E1322000F02B
:1027A0004CFB9348006840F60201884206DA00F0CC
:1027B00041FB98490860022095490870B1E100F09A
:1027C00039FB94490968401A6421B0FBF1F000B26A
:1027D000914908808648006840F60201884202DD7F
:1027E00003208B4908709CE18B48B0F900000A2156
:1027F00090FBF1F201FB12048748B0F9000090FB56
:10280000F1F523462A4685A1864801F08FFC8548CC
:1028100000F0F6FD4FF400617848FEF73BF94FF405
:1028200080517648FEF736F94FF480617448FEF720
:1028300031F94FF400617248FEF72CF94FF48051E2
:102840006F48FEF727F904216E48FEF723F94FF48D
:1028500080716A48FEF71EF910216B48FEF71AF9DD
:102860004FF480516848FEF715F904216348FEF7DC
:1028700011F94FF400616448FEF70CF94FF47A70D7
:1028800000F0DBFA00F046FE4FF400615B48FEF713
:1028900003F94FF480515948FEF7FEF84FF4806178
:1028A0005748FEF7F9F84FF400615548FEF7F4F881
:1028B0004FF480515248FEF7EFF804215148FEF7DB
:1028C000EBF84FF480714D48FEF7E6F810214E48C2
:1028D000FEF7E2F84FF480514B48FEF7DDF8042193
:1028E0004648FEF7D9F84FF400614748FEF7D4F8A0
:1028F0004FF47A7000F0A1FA4A4800F081FD4FF4DD
:1029000000613E48FEF7C6F84FF480513B48FEF7A1
:10291000C1F84FF480613A48FEF7BCF84FF400610B
:102920003748FEF7B7F84FF480513548FEF7B2F854
:1029300004213448FEF7AEF84FF480712F48FEF7BB
:10294000A9F810213048FEF7A5F84FF480512E4821
:10295000FEF7A0F804212948FEF79CF84FF4006127
:102960002948FEF797F84FF47A7000F066FA00F005
:10297000D1FD4FF400612148FEF78EF84FF48051ED
:102980001E48FEF789F84FF480611D48FEF784F871
:102990004FF400611A48FEF77FF84FF48051184851
:1029A000FEF77AF804211748FEF776F84FF48071A5
:1029B0001248FEF771F810211348FEF76DF84FF436
:1029C00080511148FEF768F804210C48FEF764F8BE
:1029D0004FF400610C48FEF75FF84FF47A7000F096
:1029E0002CFA21E02C00002015000020120000200D
:1029F0001C000020180000201100002000000240F0
:102A000000080240000C02400004024013000020B5
:102A10001400002028000020200000202532642E11
:102A20002564000022000020994800F0E9FC4FF4E2
:102A300000619848FEF72EF84FF480519548FEF754
:102A400029F84FF480619448FEF724F84FF40061B0
:102A50009148FEF71FF84FF480518F48FEF71AF89F
:102A600004218E48FEF716F84FF480718948FEF76E
:102A700011F810218A48FEF70DF84FF4805188486C
:102A8000FEF708F804218348FEF704F84FF40061CC
:102A90008348FDF7FFFF4FF47A7000F0CEF94FF452
:102AA00000617C48FDF7F8FF4FF480517948FDF74D
:102AB000F3FF4FF480617848FDF7EEFF4FF40061BB
:102AC0007548FDF7E9FF4FF480517348FDF7E4FFC7
:102AD00004217248FDF7E0FF4FF480716D48FDF767
:102AE000DBFF10216E48FDF7D7FF4FF480516C4893
:102AF000FDF7D2FF04216748FDF7CEFF4FF40061D8
:102B00006748FDF7C9FF4FF47A7000F096F900208E
:102B1000644908706449088040F6B83000F08DF9C7
:102B200000BF00BF70BD10B56048007820B101281B
:102B300005D0022809D105E0FFF78FFD05E0FFF77A
:102B400065FD02E0FFF715FE00BF00BF10BD70B5C8
:102B50005648007820B101281CD0022838D11FE047
:102B60005348007810B1012812D103E051A000F0C1
:102B700047FC0DE051A000F043FC4FF4FA6000F078
:102B80005CF95048007810B900204949087000BF2E
:102B900000BF1DE04C48B0F9000000F092FC17E0C7
:102BA0004148B0F900000A2190FBF1F201FB120448
:102BB0003D48B0F9000090FBF1F523462A46AFF2FC
:102BC000A411334801F0B2FA314800F019FC00BFFB
:102BD00000BF70BD10B53D48007820B101280AD073
:102BE00002280CD103E03AA000F00AFC07E03AA06A
:102BF00000F006FC03E03AA000F002FC00BF00BFBA
:102C0000394890F90000032190FBF1F201FB12001A
:102C100020B1012808D0022812D10BE000202B4956
:102C20000870224908700BE00220284908701F49EB
:102C3000087005E00120254908701C49087000BF94
:102C400000BF10BD00F0B0F800F02AF900F088F9DC
:102C500000F0D0FC00F022FE00F0A6FE16E000F02E
:102C600035FF00F01FFF2148016821480068FFF789
:102C7000C7FC2049086020480078012804D1FFF7EC
:102C800052FFFFF764FF01E0FFF7A4FFE7E7000052
:102C9000220000200000024000080240000C024018
:102CA000000402401400002020000020100000203A
:102CB000130000204E6F6E65000000005741524E19
:102CC0000000000011000020180000201600002065
:102CD000506572720000000054656D7000000000C5
:102CE000436F6E74000000002C0000205C00002088
:102CF000580000201C00002015000020704700BF75
:102D0000FEE700BFFEE700BFFEE700BFFEE770473B
:102D10007047704710B519480068401C1749086093
:102D200017480068002802DA002016490860144895
:102D30000068401E12490860FFF756FC10BD10B530
:102D40002020FDF7A3FD38B1C82000F076F8FFF78A
:102D50004CFC2020FDF7ABFD10BD10B54FF400502A
:102D6000FDF794FD40B1C82000F067F8FFF744FC80
:102D70004FF40050FDF79BFD10BD00003400002013
:102D8000480000203404004010B5002807DA0A0784
:102D9000140E3E4A00F00F031B1FD45403E00A0731
:102DA000130E3B4A135410BD10B501F018F901F091
:102DB00042F9384800684FF47A71B0FBF1F4601EB4
:102DC000B0F1807F01D301200FE0601E4FF0E021C1
:102DD00048610F214FF0FF30FFF7D6FF00204FF082
:102DE000E021886107200861002008B100BFFEE7EC
:102DF0004FF44070FDF734FA0021481EFFF7C4FF7E
:102E000000202549086010BD4FF0E0208069A8210E
:102E1000B0FBF1F02049096801EB4102C2EBC1119E
:102E20004FF47A7202EBC101081A1C490860084687
:102E300000687047184800687047174A116800BF5B
:102E4000154A1268521A821AFAD1704710B5034611
:102E5000FFF7DAFF044600BFFFF7D6FF001B181A82
:102E6000FAD110BD10B503460C4600BFFFF7CCFFEA
:102E7000001B9842FAD310BD00B5024600BFFFF711
:102E8000D9FF401A9042FAD300BD000018ED00E0CF
:102E900000E400E074000020340000203000002036
:102EA0001CB501210846FDF7BFFF01210220FDF7F7
:102EB000BBFF01210420FDF7B7FF01210820FDF72A
:102EC000B3FF41F60410009001208DF804000020AB
:102ED0008DF8060003208DF8050000208DF807000E
:102EE00069461B48FDF75AFD41F6100000906946FF
:102EF0001848FDF753FD4FF4E0500090694616481E
:102F0000FDF74CFD0420009069461448FDF746FD8E
:102F10008020009002208DF8070069460C48FDF7DC
:102F20003DFD8220009002208DF8070069460A4886
:102F3000FDF734FD02210848FDF7AEFD802106486B
:102F4000FDF7AAFD80210248FDF7A6FD1CBD00008B
:102F5000000002400004024000080240000C024051
:102F600000B585B001218803FDF7A2FF01210620ED
:102F7000FDF75AFF05210120FEF79EFA00208DF88B
:102F800008008DF80B002020019001A92748FDF7CB
:102F900005FD2020039000208DF8100008208DF8FA
:102FA000110001208DF8120003A8FDF709FC17207D
:102FB0008DF8000001208DF8010000208DF802003E
:102FC00001208DF803006846FDF74FF900208DF8C9
:102FD00008008DF80B004FF40050019001A914482F
:102FE000FDF7DCFC0D210220FEF766FA4FF40050DD
:102FF000039000208DF8100008208DF811000120AA
:103000008DF8120003A8FDF7DBFB28208DF80000E7
:1030100001208DF8010000208DF8020001208DF8BC
:1030200003006846FDF721F905B000BD0004024029
:103030000008024010B588B0044601210220FDF7C7
:10304000F3FE01211020FDF733FF07220921A548D7
:10305000FDF72FFD07220A21A248FDF72AFD0020D7
:103060008DF81E0001208DF81F0002208DF81C0035
:103070004FF4C060069002208DF81D0006A9994803
:10308000FDF78CFC01219848FFF78AF90294002093
:10309000ADF80C00ADF80E00ADF81000ADF814005E
:1030A0000C20ADF812000020ADF800004FF4806055
:1030B000ADF802000020ADF80600ADF8040002A94A
:1030C0008948FFF7D1F869468748FFF73FF90121A2
:1030D0008548FFF751F908B010BD10B588B0044617
:1030E00001210846FDF7A0FE01214804FDF7CFFEAF
:1030F000072202217B48FDF7DCFC072203217948E7
:10310000FDF7D7FC00208DF81E0001208DF81F0070
:1031100002208DF81C000C20069002208DF81D0066
:1031200006A97048FDF73AFC01217048FFF738F90D
:1031300002940020ADF80C00ADF80E00ADF81000C0
:10314000ADF814000C20ADF812000020ADF800001E
:103150004FF48060ADF802000020ADF80600ADF835
:10316000040002A96148FFF77FF869465F48FFF74E
:10317000EDF801215D48FFF7FFF808B010BD0146EA
:1031800000BF704770B504460D46E1B25648FFF7E0
:103190001EF900BF80215448FFF7C9F90028F9D073
:1031A000204670BD014600BF4F4A128802F020023F
:1031B000002AF9D04C4A9288C2F30800704710B533
:1031C000044600BF80214848FFF7B1F90028F9D034
:1031D000A1B24548FFF7FBF8204610BD10B544A04A
:1031E00000F098FF00BF20213F48FFF7A0F900281A
:1031F000F9D03D48FFF7EFF8C0B210BD10B545A0BB
:1032000000F088FF00BF20213748FFF790F9002821
:10321000F9D03548FFF7DFF80446214645A000F015
:1032200079FF3148FFF7D7F8C0B210BD10B543A001
:1032300000F070FF00BF20212B48FFF778F900282D
:10324000F9D02948FFF7C7F8A0F13004214642A081
:1032500000F060FF2448FFF7BEF8303810BD10B50D
:1032600086B0044621463EA000F054FF01A943A0C9
:1032700001F0B2F801A942A000F04CFF0BE021469A
:1032800041A000F047FF01A93CA001F0A5F801A969
:103290003BA000F03FFF214601A801F0C3F9002840
:1032A000EDD106B010BD38B50446214641A000F06E
:1032B00031FF694646A001F08FF827A0009900F081
:1032C00029FF0BE0214643A000F024FF694640A0FF
:1032D00001F082F820A0009900F01CFF0098A042A5
:1032E000F0D138BD00000240001001400044004011
:1032F0000D0A707265737320616E79206B65792099
:10330000746F20636F6E74696E75652E2E2E0D0AB4
:103310000D0A0000706C6561736520656E746572DE
:10332000206120636861726163746F722E2E2E0DAE
:103330000A00000025630D0A00000000706C656142
:10334000736520656E7465722061206469676974B5
:103350002E2E2E0D0A00000025640D0A000000002C
:10336000507265737320257320746F20436F6E74E1
:10337000696E75652E2E2E203A0000002573000020
:1033800025730D0A00000000496E76616C696420A7
:10339000696E7075742C20707265737320257320AC
:1033A000746F20436F6E74696E75652E2E2E203AF1
:1033B00000000000507265737320256420746F2034
:1033C000436F6E74696E75652E2E2E203A000000D4
:1033D00025640000496E76616C696420696E7075C1
:1033E000742C20707265737320256420746F2043E1
:1033F0006F6E74696E75652E2E2E203A00000000E7
:103400002DE9F04105464FF480415948FDF744FB52
:1034100040215848FDF740FB002416E0285D00EBF2
:1034200080005549471800260CE000BF0221534890
:10343000FDF7F9FF0028F9D039785048FDF7BCFFB7
:103440007F1C761C052EF0DB641C042CE6DB00BF21
:1034500002214A48FDF7E7FF0028F9D000BF80218C
:103460004648FDF7E0FF0128F9D040214148FDF72B
:1034700011FBBDE8F0811CB50446234640A205219E
:10348000684600F067FE6846FFF7BAFF1CBD00B54E
:103490002DED048B85B0B0EE408A18EE100A02F0D4
:1034A0004BFB41EC190B8DED009B37A2052103A8C6
:1034B00000F050FE03A8FFF7A3FF05B0BDEC048B9E
:1034C00000BD1CB50446234631A20521684600F024
:1034D00041FE6846FFF794FF1CBD70B50546002409
:1034E00006E0285D18B92846FFF78AFF70BD641C06
:1034F000032CF6DB002407E02819FFF781FF4FF4C7
:103500007A70FFF79AFC641CE01C285C0028F3D159
:1035100000BFEBE710B54FF480411548FDF7BCFA4A
:1035200040211448FDF7B8FA00240BE000BF022147
:103530001248FDF778FF0028F9D000210F48FDF769
:103540003BFF641C142CF1DB00BF02210B48FDF78C
:103550006AFF0028F9D000BF80210848FDF763FF0B
:103560000128F9D040210348FDF794FA10BD00006E
:103570000004024000080240285C000800380040B7
:103580004525303364000000252E31660000000020
:10359000253034640000000010B504464FF480412B
:1035A0005348FDF777FA40215248FDF775FA00BFFE
:1035B00002215148FDF737FF0028F9D021464E4837
:1035C000FDF7FAFE00BF02214B48FDF72CFF002853
:1035D000F9D000BF80214848FDF725FF0128F9D028
:1035E00040214448FDF756FA4FF480414048FDF72A
:1035F00053FA10BD00B587B001218803FDF747FCE1
:1036000001210220FDF710FC01210420FDF70CFC34
:1036100005220D213648FDF74CFA05220F213448CA
:10362000FDF747FA02208DF818008DF819000020E8
:103630008DF81A008DF81B004FF42040059005A965
:103640002B48FDF7ABF94FF48040059001208DF831
:10365000180000208DF81A0003208DF819000020B2
:103660008DF81B0005A92248FDF798F94020059028
:1036700001208DF8180000208DF81A0003208DF825
:10368000190000208DF81B0005A91A48FDF786F9DE
:103690001948FDF707FD6846FDF7F7FD4FF4827006
:1036A000ADF802004FF44040ADF800004FF4007058
:1036B000ADF80A000020ADF80C0069460E48FDF791
:1036C00017FD01210C48FDF734FE01210A48FDF7E2
:1036D000F2FD01210848FDF71DFE40210548FDF7D8
:1036E000D9F97720FFF758FFFFF714FF07B000BDA7
:1036F0000004024000080240003800401CB50121CF
:103700000420FDF7C4FB4FF47070009002208DF888
:10371000040003208DF8050000208DF806008DF8C8
:10372000070069465648FDF739F902220621544838
:10373000FDF7BFF9022207215148FDF7BAF902222D
:1037400008214F48FDF7B5F9022209214C48FDF741
:10375000B0F91CBD00B589B040F2E73007900320F6
:10376000ADF818000020ADF82000ADF81A0006A949
:103770004448FDF786FF6020ADF804000120ADF855
:1037800006004148008803900020ADF8100001A910
:103790003C48FEF70BF808213A48FEF794F901205F
:1037A000ADF8060039480088039001A93548FEF7B6
:1037B00036F808213348FEF78FF90120ADF80600EE
:1037C00033480088039001A92E48FEF775F80821B8
:1037D0002C48FEF78EF90120ADF806002D48008830
:1037E000039001A92748FEF7CDF808212548FEF7E8
:1037F00089F901212348FDF7AFFF01212148FDF799
:10380000C9FF09B000BD10B5FFF778FFFFF7A2FFB1
:1038100010BDB0F57A7F01DB40F2E73010F57A7F1A
:1038200000DC1D48002807DB164934310860002100
:10383000144A3832116006E00021124A3432116015
:103840004142121D11607047B0F57A7F01DB40F2F2
:10385000E73010F57A7F00DC0F48002807DB0949C4
:103860003C3108600021074A4032116006E0002127
:10387000044A3C3211604142121D11607047000041
:1038800000040240000800404000002042000020E8
:10389000440000204600002019FCFFFF00B58BB05B
:1038A00001210220FDF7F3FA4020099002208DF853
:1038B000280003208DF8290000208DF82A0002201E
:1038C0008DF82B0009A93448FDF768F8022206217B
:1038D0003148FDF7EEF8952007908B20ADF81800E1
:1038E0000020ADF82000ADF81A0006A92B48FDF71E
:1038F000C8FE6020ADF804000120ADF806000020ED
:103900000390ADF8100001A92448FDF74FFF0821EE
:103910002248FEF7D8F801212048FDF71DFF0121BC
:103920001E48FDF737FF0BB000BD70B504468C2074
:1039300060431B490860952018492C310860002518
:1039400012E016482C300068401CC008134934317E
:1039500008604620FFF771FA0020104934310860F2
:103960004620FFF76AFA6D1CA542EADB70BD0B4AE0
:103970002C321268521C9208084B34331A60094AE0
:1039800092FBF1F28C2392FBF3F2521E034B2C3389
:103990001A60034A106070470000024000040040B3
:1039A0004800002000BD010500B58DB001210802CE
:1039B000FDF77EFA3820019003208DF808000020E2
:1039C0008DF80B0001A93348FCF7E8FF03200190B4
:1039D0008DF8080000208DF80B0001A92E48FCF797
:1039E000DDFF3020019003208DF8080000208DF8C5
:1039F0000B0001A92948FCF7D1FF002003904FF4E8
:103A000080300490002005904FF47060069003A869
:103A1000FCF7D0FC002007908DF820008DF82100E5
:103A20000A900B9001208DF8300007A91C48FCF784
:103A300092FC012240F205211948FCF773FE012196
:103A40001748FCF7CEFC80211448FDF725F8022129
:103A50001248FDF721F880210E48FDF71DF80DB042
:103A600000BD70B505460E46144623460122314678
:103A70002846FCF7F6FC2846FCF74FFD00BF022164
:103A80002846FCF76BFE0028F9D02846FCF781FD9C
:103A900070BD000000000240000402400008024027
:103AA0000020014010B504220321CB48FFF7D9FFC5
:103AB000CA4908600846006840F2293148434FF47B
:103AC0004B6190FBF1F0C649086010BD10B50422AF
:103AD0000921C148FFF7C5FFC24908600422114609
:103AE000BD48FFF7BEFFC049086004220821BA485C
:103AF000FFF7B7FFBD49086004220521B648FFF76C
:103B0000B0FFBB490860FFF77FF904468021B94840
:103B1000FCF7C0FF21463C20FFF7A4F9042209214D
:103B2000AD48FFF79EFFAF490968401AAD490860EC
:103B30008021B048FCF7B0FFAA480068002802DAEC
:103B40000020A849086021468C20FFF78BF902214C
:103B5000A848FCF79FFF2146C820FFF783F90422FD
:103B600011469D48FFF77DFF9F490968401A9E490D
:103B7000086002219F48FCF78FFF9B4800680028DF
:103B800002DA00209849086021464FF48C70FFF754
:103B900069F980219848FCF77DFF21464FF4AA700F
:103BA000FFF760F9042208218B48FFF75AFF8F497D
:103BB0000968401A8D490860042205218648FFF7EC
:103BC00050FF8B490968401A8949086080218A485A
:103BD000FCF762FF85480068002802DA002083496C
:103BE000086083480068002802DA002080490860E5
:103BF000FFF758FF7B4800688049096848434FF445
:103C00007A7190FBF1F077490860774800687B494A
:103C1000096848434FF47A7190FBF1F072490860EB
:103C2000724800687549096848434FF47A7190FBFF
:103C3000F1F06E4908606E480068704909684843B1
:103C40004FF47A7190FBF1F06949086010BD70B5CE
:103C5000142500206A49086000240AE004220F218C
:103C60005D48FFF7FEFE664909680844644908603C
:103C7000641CAC42F2DB4CF2503090FBF5F0604932
:103C8000096848435E490860084600685D49401A73
:103C90005B490860084600684CF2503190FBF1F037
:103CA000574908600868C11700EB91718910544AA0
:103CB0001160554800681146096808445249086077
:103CC00070BD10B546480068B0F52F7F7BDA002044
:103CD000FFF79FFD0020FFF7B7FD72E04BA0FFF755
:103CE0008FFB4FF400614448FCF7D6FE4FF480513F
:103CF0004148FCF7D1FE4FF480613E48FCF7CCFE12
:103D00004FF400613B48FCF7C7FE4FF4805139483F
:103D1000FCF7C2FE04213F48FCF7BEFE4FF4807161
:103D20003548FCF7B9FE10213B48FCF7B5FE4FF4CF
:103D300080513948FCF7B0FE04212F48FCF7ACFE57
:103D40004FF400613448FCF7A7FEC820FFF775F870
:103D5000FFF7E0FB4FF400612748FCF79BFE4FF4B0
:103D600080512548FCF796FE4FF480612148FCF70E
:103D700091FE4FF400611F48FCF78CFE4FF4805118
:103D80001C48FCF787FE04212248FCF783FE4FF411
:103D900080711948FCF77EFE10211F48FCF77AFE5F
:103DA0004FF480511C48FCF775FE04211248FCF7C3
:103DB00071FE4FF400611848FCF76CFEC820FFF755
:103DC0003CF88BE7FFE706480068FFF77AFB4FF403
:103DD0007A70FFF732F810BD00200140500000203B
:103DE00054000020580000205C00002060000020EB
:103DF0006400002000080240000002404C00002047
:103E00006C00002020C38A05700000204C626174A1
:103E100000000000000C02400004024009488047F6
:103E200009480047FEE7FEE7FEE7FEE7FEE7FEE79C
:103E3000FEE7FEE7FEE7FEE704480549054A064BB4
:103E400070470000DF3F000889010008E8000020FB
:103E5000E8060020E8020020E80200200CB500205F
:103E6000019000909F48006840F480309D490860B0
:103E700000BF9C48006800F4003000900198401C8E
:103E80000190009818B90198B0F5A06FF1D195484C
:103E9000006800F4003010B10120009001E0002023
:103EA00000900098012847D18E484030006840F0CB
:103EB00080508C49403108608B48006840F4804055
:103EC00089490860874808300068864908310860D9
:103ED0000846006840F4004008600846006840F466
:103EE000A05008608148091F0860081F006840F062
:103EF0008070091F086000BF7A48006800F00070F9
:103F00000028F9D040F2056079490860754808300A
:103F1000006820F003007349083108600846006813
:103F200040F00200086000BF6E480830006800F0F2
:103F30000C000828F8D151E06A4800686D49084033
:103F4000684908600846006840F00100086065485C
:103F50004030006840F0805062494031086062485B
:103F6000006840F48040604908605E48083000689E
:103F70005C49083108600846006840F40040086069
:103F80000846006840F4A05008605848091F0860BF
:103F9000081F006840F08070091F086000BF51488A
:103FA000006800F000700028F9D040F20560504928
:103FB00008604C480830006820F003004949083187
:103FC00008600846006840F00200086000BF4548ED
:103FD0000830006800F00C000828F8D10CBD10B5BE
:103FE0004548006840F47000434908603D48006857
:103FF00040F001003B49086000203A490831086060
:10400000384800683B490840364908603B48091D6C
:104010000860081F006820F48020091F0860002045
:1040200030490C310860FFF719FF4FF0006032494A
:104030008039086010BD70B50020002202230024E2
:104040000221284D08352D6805F00C0020B1042808
:1040500006D0082834D107E0294D2A4E356033E0D8
:10406000294D284E35602FE01E4D2D1D2D68C5F3BE
:1040700080541C4D2D1D2D6805F03F0154B1224D7B
:10408000B5FBF1F5174E361D3668C6F3881605FBED
:1040900006F209E01A4DB5FBF1F5124E361D3668F1
:1040A000C6F3881605FB06F20E4D2D1D2D68C5F3CF
:1040B00001456D1C6B00B2FBF3F5124E356003E059
:1040C0000F4D104E356000BF00BF064D08352D68FE
:1040D000C5F303150D4E705D0A4D2D68C540094EA0
:1040E000356070BD00380240007000401054000779
:1040F000003C0240FFFFF6FE88ED00E01030002497
:104100000024F4007400002000127A0078000020DF
:10411000704700000FB4044910B503AA029800F0DC
:1041200069FD10BC5DF814FB380000200FB41CB50D
:10413000074B06AA7B4469460090059800F023FDD2
:104140000020694600F032FD1CBC5DF814FB000045
:10415000750A00000FB41CB50C0007AA009001D02E
:104160002044401E074B7B4469460190069800F0AE
:104170000AFD002C03D06946002000F017FD1CBC8E
:104180005DF814FB4D0A000070B5044685690068AF
:10419000C10601D5302600E02026C00707D070BD3B
:1041A000D4E9012130469047206A401C20626D1EF0
:1041B000F6D570BD70B5044685690078C00707D193
:1041C00070BDD4E9012120209047206A401C206264
:1041D0006D1EF6D570BD70B50C460546012A05D09A
:1041E0002878800600D5EA69002302E0012305E073
:1041F0005B1C934202D2E05C0028F9D1A869E61862
:10420000C01AA861286A184428622846FFF7BCFF34
:1042100004E0D5E9012114F8010B9047B442F8D32A
:104220002846FFF7C7FF70BD2DE9F0410646002480
:1042300010687529314616A510D0AFF3008000280C
:1042400002DA404213A507E031688A0701D512A5BA
:1042500002E0490704D511A5012401E0AFF3008075
:1042600000210A2206F1240709E0B0FBF2FCB0FBB2
:10427000F2F302FB1C00303078541846491C002829
:10428000F3D123462A463046BDE8F04100F00EBA8D
:10429000000000002D0000002B00000020000000A6
:1042A0002DE9F05F894604464FF0000ADFF824B19B
:1042B000FB44C0F820A02046E168884700287DD054
:1042C000252806D0D4E901219047206A401C2062AD
:1042D000F1E700255F462046E1688847202806462A
:1042E00007DB312E05D2B81910F8200C08B10543B0
:1042F000F1E7A80701D525F00405C4F81CA00027A4
:10430000C4F818A02A2E09D0304601F0DBFB38B3E0
:1043100004EB8708303EC8F8186019E059F8041B10
:10432000204604EB87029161E1688847012F064629
:1043300018D1E069002820DA25F020051DE0D8F822
:10434000180000EB800006EB40003038C8F8180079
:104350002046E1688847064601F0B4FB0028EED10C
:10436000012F0AD02E2E08D12046E16888477F1CF5
:104370000646022F45F02005C4DBA069002803DAB9
:10438000404245F00105A061E80701D025F0100585
:10439000A6B1A6F14100192802D8203645F40065DF
:1043A0004A463146204625604D46FBF727FF60B15F
:1043B000012807D0ED1D25F0070000E007E000F11F
:1043C000080978E705F1040975E730467AE7206ABD
:1043D000BDE8F09F9E1C00000FB400B589B00BA88B
:1043E0006A46009003480A9900F024FC09B05DF881
:1043F00014FB00003C0000202DE9FF5F1D464FF03C
:10440000FF3B91464FF000085F46D5E90146A96998
:1044100001987F1C8847296A824688470028F6D180
:10442000BAF1FF3F0CD0002E24F4C06419DD600601
:1044300014D5BAF12B0F09D0BAF12D0F0ED103E02C
:10444000584604B0BDE8F09F44F48064A96901981F
:104450007F1C8847761E8246002E02DDBAF1300F9F
:1044600003D0B9F1000F26D032E0A969761E019879
:104470007F1C44F400748847002E824605DDBAF1A3
:10448000780F06D0BAF1580F03D0B9F1000F10D051
:104490001EE0B9F1000F02D0B9F1100F18D1A969CF
:1044A000761E01987F1C24F40074884782461020F1
:1044B00002E0082000E00A20814609E0A96908FB23
:1044C0000908761E01987F1C44F4007488478246D0
:1044D000002E05DD4946504600F09EFB0028EDDA2F
:1044E000E96901988847A00502D46FF00100A8E7A8
:1044F000E00725D1600613D5600502D5C8F100009C
:1045000000E0404629680A1D2A600968220501D595
:10451000087015E0220701D5088011E008600FE05F
:104520002868011D29600068210502D580F80080F7
:1045300006E0210702D5A0F8008001E0C0F8008065
:1045400038467EE72DE9FF5F4FF000089946144694
:1045500046469169D2E901A7DDF838B0019888474D
:10456000054659EA0B0005D009E0A1690198761CBF
:1045700088470546216A284688470028F5D1681CE7
:1045800003D05FEACA7005D015E04FF0FF3004B0E9
:10459000BDE8F09F2068011D2160D0F800800AE08E
:1045A0005FEACA7001D108F8015BA169761C019825
:1045B0007F1E88470546002F1ADD681C18D0B9F108
:1045C000000F0DD0E81705EBD060421120F01F005E
:1045D00059F822102A1A012090400142E0D107E048
:1045E000BBF1000FDCD12846216A88470028D7D0CC
:1045F000E16901988847BBF1000F07D1002E05DD66
:104600005FEACA7002D1002188F80010A068B842A1
:1046100003DDBBF1000F03D017B16FF00100B6E767
:104620003046B4E74FF0013C50F8042B51F8043BFE
:104630009A4221D1A2EB0C03934313EACC1317D176
:1046400050F8042B51F8043B9A4215D1A2EB0C030D
:10465000934313EACC130BD150F8042B51F8043BCD
:104660009A4209D1A2EB0C03934313EACC13DBD09B
:104670004FF00000704700BFD01A01BAB1FA81F1C3
:1046800001F0180122FA01F0CB40C1F12001DBB2A8
:10469000C0B2C01A2CFA01F3D11A914311EAC31126
:1046A000E6D1704770477047704770472DE9F04773
:1046B0000D4699469246044600F124080168880692
:1046C00004D5E06921F01001216000E00120A8423A
:1046D00001DD471B00E00027A1697A1902EB090000
:1046E000081AA0612078C00602D42046FFF74CFDCE
:1046F000002608E0D4E901211AF806009047206A54
:10470000401C761C20624E45F4DB2078C0060AD59A
:104710002046FFF739FD06E0D4E90121302090471B
:10472000206A401C2062381EA7F10107F4DC07E074
:10473000D4E9012118F805009047206A401C206246
:10474000281EA5F10105F3DC2046FFF733FD207894
:10475000000602D50220BDE8F0870120FBE7704784
:104760002DE9FF4F0C461E464FF0FF378BB0D2E9C4
:104770000001DDF860800A908A46C1F30A5505B948
:104780003D46002108464FF00000BAF1000F00F44A
:10479000400005DA00EB80004FF4400101EA5000D0
:1047A0004FEA9059B9F1010F00DDB9460A9850EA75
:1047B0004A000ED044F61050A5F2FF3545432F14A1
:1047C000B8F1000F1ED07542291E1EDDC9F100028E
:1047D0001CE0B8F1010F4FF0000001D0302103E0E0
:1047E000F24305E02154401CB042FBDB304600227E
:1047F000002121540B99C1F80880C1E900200FB0B5
:10480000BDE8F08FBD1B6D1CDEE74A4600DA694249
:1048100006A800F0BBFA06AB93E8070003AB83E8F9
:10482000070050460A9900F06DFD8DE80700A0F5DD
:1048300000501F3800900398002D0ADD42F21F013E
:104840004A460844002303A90390684600F0D6FFB7
:1048500009E0A0F500504A461F38002303A9039041
:10486000684600F0E0FF8DE807000004000C03D06C
:104870004FF0FF30410800E01046B8F1000F03D0C0
:104880000022009215461EE0751E05D400F0E2F9E4
:10489000303262556D1EF9D5B3460122084302D06D
:1048A00000227F1C04E02078302801D100227F1EE6
:1048B000002A099784D01DE0112D07DA00F0CAF90B
:1048C000303262556D1C50EA0102F5D1084302D026
:1048D0000098C8B10EE00021681E05E0235C625C10
:1048E00063542254401E491C8142F7DBAB46A81B8F
:1048F000401E0990002004F80B000B98099AC0F89C
:104900000880C0E9002B7AE711264FF0000857E72E
:104910002DE9F04F88460446D21D22F0070191B0E0
:10492000D1E90001CDE90A0101F0B4F802460B9883
:10493000C00F01D02D2007E02068810701D52B2072
:1049400002E0202101EAC000032A099001D0072AD1
:1049500005DB03464146204600F0C2F90BE1207812
:10496000800601D5E06900E00620B8F1650F8146B8
:1049700006D0B8F1660F18D0B8F1670F70D131E0EA
:104980000020B9F1110F009001DB112301E009F1C2
:1049900001030AAA01A90CA8FFF7E2FEDDE90C70E9
:1049A000002609F10105834647E001204B460090AF
:1049B0004FF000470AAA01A90CA8FFF7D1FEDDE9D4
:1049C0000DB00C995D46002610B909F101000D18D3
:1049D000B9EB050003D4C0F1FF3609F10105A5EBE1
:1049E00009002BE0B9F1010F01DA4FF001090020B5
:1049F000B9F1110F0090484601DD112300E0034694
:104A00000AAA01A90CA8FFF7ABFEDDE90C704D4620
:104A100000268346207800070AD4AB4500DA5D46BD
:104A200001A8012D04DD411911F8011C302907D01E
:104A30004F4502DA17F1040F04DA012082460FE035
:104A40006D1EEEE7002F02DCED1B3E4403E0781CF8
:104A5000A84200DD7D1CB81B00F1010A4FF00047A1
:104A60002078000703D4AA4501DB4FF0FF3A00216C
:104A7000B7F1004F0DF143088DF8431024D0022008
:104A80002B23002F01DA7F422D230A21021EA0F1E1
:104A9000010000DC5FB197FBF1FC97FBF1F201FB39
:104AA0001C7C17460CF1300C08F801CDEEE7A8F19C
:104AB000010003702188090501D5452100E0652129
:104AC000A0F1010800F8011C09980FA9A1EB080743
:104AD000FF1D00B10120411901EBEA70A1693844C2
:104AE000081A401EA0612078C00602D42046FFF7B5
:104AF0004BFB099828B1D4E901219047206A401C5A
:104B000020622078C00622D52046FFF73DFB1EE03C
:104B1000002E04DBB34502DD01A8805D00E03020FB
:104B2000D4E901219047206A401C2062761CAAF13A
:104B300001005FEA000A0AD100F088F8C068016845
:104B4000405CD4E901219047206A401C2062281E65
:104B5000A5F10105DCDC07E0D4E9012118F8010B1F
:104B60009047206A401C2062381EA7F10107F3DC41
:104B70002046FFF71FFB032011B041E601694A1CE4
:104B800002610878704700B58FB0CDE9013100218E
:104B9000059105497944CDE9031011466846FFF7B0
:104BA0007FFB0FB000BD0000E5FFFFFF0A6802F8C1
:104BB000010B0A607047D1E900239A4202D2531CCC
:104BC0000B601070704710B5436913B1AFF30080EC
:104BD00001E0FFF700FB012010BD127800F1240175
:104BE0000A7000224A700122EDE711684FF0FF328F
:104BF000E9E70000074B70B50D467B44FFF7C3FFA4
:104C00000446284600F058F910B14FF0FF3070BD4F
:104C1000204670BD87E5FFFF3A2800D2303820F0EB
:104C20002002412A01D3A2F13700884201D34FF07C
:104C3000FF307047034B7B449361034B7B44D3614C
:104C400000F094B86BE5FFFF3302000000487047A6
:104C5000A800002030B5B0F10A024FEA900E71F1C1
:104C600000034EEA817EB0EB0E0061EB91014FEA4A
:104C7000101E4EEA017E10EB0E0041EB11114FEABF
:104C8000102E4EEA016E10EB0E0041EB11214FEA9F
:104C9000104E4EEA014E10EB0E0041EB1141401850
:104CA00041F100014FEAD00040EA41704FEAD101E2
:104CB00010EB80054FEA810444EA907444EB010450
:104CC0006D1944EB0404521BA3414FF0000348BF8D
:104CD0000A3200D530BD401C41F1000130BD00005A
:104CE0002DE9F0411F46044603260168072A01F416
:104CF000006004DB08B116A505E016A503E008B1C5
:104D000015A500E015A521F010002060A069C01EC7
:104D1000A0610FB1401EA0612046FFF735FA4FB1E8
:104D2000D4E9012138469047206A401C2062C01C0B
:104D3000206206E0206AFAE7D4E9012115F8010BA8
:104D40009047761EF8D22046FFF734FABDE8F0818E
:104D50004E414E006E616E00494E4600696E66001F
:104D6000026811441378016018467047D160054904
:104D7000794451610449794411620021116111465D
:104D800000F0D0B8EDFFFFFF990100002DE9F047DA
:104D9000814616468AB0354878440DC88DE80D0026
:104DA00032487844801C03AC0DC884E80D0041F6FD
:104DB0009B300844372190FBF1F290FBF1F5A5F10F
:104DC000800501FB12041B3C02D56442012000E077
:104DD0000020DFF898A080460027FA44AAF1BE0A16
:104DE0000EE0E0070AD03246684607EB4701012390
:104DF0000AEB810100F017FD8DE8070064107F1CAD
:104E0000002CEED1194F7F44AE3F19E0E80715D0D2
:104E100007EB04100DF1180A90E80E008AE80E0066
:104E2000C068F04201D1981908903246012306A9C2
:104E300003A800F0F8FC03AB83E807006D10641CC6
:104E4000002DE3D14FF0010332466946B8F1000F5F
:104E500003A802D000F0D2FC01E000F0E4FCC9E9B4
:104E60000001C9F808200AB0BDE8F087441200002C
:104E7000704710B54FF0FF34C1688A020FD5036B3D
:104E800042689A420BD1014690F82520104600F066
:104E900003FA401C01D1204610BD002010BD11F0C6
:104EA000C00FF8D1026941689142F4D90268491EE5
:104EB000521CC0E90021F0E7007B00F08000704741
:104EC00000487047880000207546FFF7F9FFAE469E
:104ED00005006946534620F00700854618B020B506
:104EE000FEF7AAFFBDE820404FF000064FF0000794
:104EF0004FF000084FF0000B21F00701AC46ACE882
:104F0000C009ACE8C009ACE8C009ACE8C0098D46EE
:104F1000704710B5044600F0EDF90068005D00F040
:104F2000010010BD2DE9F34F4FF0000A0C46564624
:104F30008DB001200C9001F10C000B9062690B9870
:104F400001219047051E2DD0252D2CD0216A8847A0
:104F5000C0B162690B9801219047216A88470028F7
:104F6000F7D16269411E0B98904700E0761CA16959
:104F70000D988847216A88470028F7D1E1690D9884
:104F80008847DBE7A1690D988847A842074601D109
:104F9000761CD3E7E1690D9888477F1C02D1BAF1EE
:104FA000000F6FD06BE162690B9800273D463946D0
:104FB00090472A2804D162690B9801219047012566
:104FC000DFF8D08262690B9801219047A0F130018F
:104FD0000A290AD24745E5DC07EB870100EB4107C8
:104FE000303FDFD445F01005ECE7E90601D46FF05F
:104FF00000476C280AD04C2814D0682815D06A289D
:105000000DD074281CD07A281AD01DE062690B9844
:10501000012190476C2802D045F0040514E045F0CA
:1050200002050DE045F020050AE062690B980121B8
:105030009047682802D045F0080505E045F4006572
:1050400062690B9801219047C4E9015765283DD05A
:1050500019DC58287AD00CDC452837D004DC252808
:1050600026D041289ED131E046282FD0472899D11B
:105070002CE05B2877D0612828D063287CD0642876
:1050800023D15AE0F6E06F2848D008DC66281DD00E
:1050900067281BD0692821D06E2816D127E07028F8
:1050A00045D0732868D0752847D078280DD14DE0B9
:1050B000A1690D988847252805463FF469AFE16945
:1050C0000D9888476D1C3FF46AAFD8E00D992346D0
:1050D0006A466FF00100AFF30080C5E045F0400084
:1050E00023464FF000026060A80736D43EE0E80790
:1050F0007FF447AF2068011D21600068290501D5B4
:1051000006701BE7290701D5068017E7A90703D515
:10511000F117C0E9006111E706600FE745F04000B4
:1051200023464FF008026060A80716D41EE040F640
:105130000E0125EA0100606016E045F040002346BC
:105140004FF00A026060A80707D40FE045F0400066
:105150006060A80708D5234610220D996FF0010062
:10516000AFF3008080E007E0102223460D996FF036
:105170000100FFF741F977E04FF0000963284F463F
:10518000C8464B46CB4602D05B2806D038E0E8063E
:1051900001D40120A060012732E06269D4F80CB08C
:1051A0000B98012190475E2807D14FF0010949462D
:1051B0006269D4F80CB00B989047216939B9002185
:1051C0000A4603AB43F82120491C0829FADBD8B36F
:1051D000216949B308F1010862690B9801219047E0
:1051E0005D28F4D1B9F1000F09D0002003A951F8CE
:1051F0002020D24341F82020401C0828F7DB03ABD5
:105200002069002820794FEA40701ED05B46224674
:10521000CDF80080CDE901970D9900286FF00100CD
:1052200020DAAFF300801FE0C11703AA00EBD161C1
:105230004B1121F01F0102EB8302411A1368012078
:10524000884003431360C7E719E00D992246002800
:105250006FF00100009702DAAFF3008004E0FFF77F
:1052600071F901E0AFF3008000280ADA401C06D192
:105270000C9820B14FF0FF300FB0BDE8F08F5046D2
:10528000FAE7E90701D10AF1010A064400200C906F
:1052900054E60000CCCCCC0CCA68431C0FD00D4B9C
:1052A0001A420CD1D3070AD081F825004B680B6352
:1052B00000238B6012F0C06F0B6003D004E04FF04E
:1052C000FF30704742F00072034B1A40034B1A4301
:1052D000CA60704780200800BFFFDFFF0010480051
:1052E00010B50446AFF300802046BDE81040FAF741
:1052F000B0BF000010B5FFF7A9FC001D10BD00BF36
:10530000010800005FEA400C08BF91F0000F4FEA6F
:105310008C234FEAC12243EA51514FEA1C5018BF77
:1053200000F5F0404FEA300018BF41F000415FEA5D
:105330006C5C00F02980BCF1FF3F08BF40F080406A
:105340007047130C06BF12044FF0100C4FF0000C06
:10535000130E04BF12020CF1080C130F04BF12014C
:105360000CF1040C930F04BF92000CF1020CD30F4C
:1053700004BF52000CF1010C11464FF00002A0F1E5
:105380001F00A0EB0C00704711F0004F08BF7047E2
:1053900031F000413FF4D5AF0B0C06BF09044FF0CC
:1053A000100C4FF0000C0B0E04BF09020CF1080C9E
:1053B0000B0F04BF09010CF1040C8B0F04BF890013
:1053C0000CF1020CCB0F04BF49000CF1010CCCF125
:1053D0002003A0EB0C0022FA03F302FA0CF241EADC
:1053E000030100F10100704720F07F4C80EA0300C8
:1053F00023F07F47ACEB070303F57C5300F000403C
:1054000003F1FF032DE980494FEA154B09B44FEA38
:10541000144325EA0B4E24EA03480FF2042606EB58
:10542000132749083E785FEA320203FB0667C7F597
:10543000000707FB06F64FEA54374FEAD64606F157
:10544000020607FB066CCCF1005C4FEA1C472CEA15
:10545000074C07FB06F40CFB06F504EB15464FEA78
:10546000961634BF00204FF000404FEAD13706FBBC
:1054700007FC4FEA1C4C0CFB0BF7D21B03FB0CF791
:1054800061EB07010CFB0EF7B0EB074072EB174224
:105490000CFB08F734BFA2EB0742B2EB074261EB0B
:1054A00017414FEA0C444FEA910706FB07FC4FEA0D
:1054B0001C4C0CFB0BF7B0EBC74072EB573203FBF5
:1054C0000CF734BFA2EBC742B2EBC74261EB5731D6
:1054D0000CFB0EF7B0EBC70072EB57720CFB08F732
:1054E00034BFA2EBC702B2EBC70261EB5771039F57
:1054F0004FEA816141EA921104EBCC044FEAD137C3
:105500004FEA826206FB07FC42EA90124FEA806093
:105510004FEA1C4C0CFB0BF7D21B03FB0CF761EBA7
:1055200007010CFB0EF7B0EB074072EB17420CFBC8
:1055300008F734BFA2EB0742B2EB074261EB174119
:105540004FEA8C554FEA910704EB9C2406FB07FCBD
:105550004FEA1C4C0CFB0BF7B0EBC74072EB573219
:1055600003FB0CF734BFA2EBC742B2EBC74261EBBF
:1055700057310CFB0EF7B0EBC70072EB57720CFB08
:1055800008F734BFA2EBC702B2EBC70261EB577159
:1055900015EB4C254FEA816141EA92114FEA826294
:1055A0004FEAD13742EA901206FB07FC44F10004AF
:1055B0004FEA80604FEA1C4C0CFB0BF7D21B03FB3D
:1055C0000CF761EB07010CFB0EF7B0EB074072EB39
:1055D00017420CFB08F734BFA2EB0742B2EB0742BD
:1055E00061EB174115EB1C154FEA813141EA9241FD
:1055F0004FEA823242EA90424FEA80304FEA0C761C
:1056000044F1000448EA03434EEA0B484FF0000E11
:10561000B2EB080C71EB030724BF624639464EEB30
:105620000E0E4FF0000B0018524149414BEB0B0B93
:10563000B2EB080C71EB03077BF1000B24BF624651
:1056400039464EEB0E0E4FF0000B00185241494107
:105650004BEB0B0BB2EB080C71EB03077BF1000B70
:1056600024BF624639464EEB0E0E51EA020718BFC0
:1056700046F0010616EB0E7655F1000254F10001DA
:1056800003D5BDE88901BDE80088BDE88901BDE812
:105690000048B619524141EB0101A3F101037047E3
:1056A00080807F7E7D7C7B7A79787776767574735F
:1056B000727171706F6E6E6D6C6C6B6A6A6968681E
:1056C000676666656464636362616160605F5F5EB4
:1056D0005E5D5D5C5C5B5B5A5A595958585757562A
:1056E000565555555454535352525251515050508F
:1056F0004F4F4F4E4E4D4D4D4C4C4C4B4B4B4A4AE1
:105700004A49494948484847474747464646454524
:10571000454444444443434343424242424141415D
:10572000002B9C4630D477002BD01CB54FEA3707AE
:1057300003B44FF010004FF01001BAF1000F06D083
:10574000BCF1000FDCBF40F0080040F008014FF052
:1057500000000FBCBDE810400BF1010BBBF1010FC5
:1057600008BF5FEA170722BF12F1010211F1010120
:105770004FF0004143F1000300F0004043EA000015
:105780007047F9D35708D0E746EA064613F1400FB1
:105790004FEA16461FDD13F1200FDFBF16430A46FE
:1057A000002120335B42BED0C3F1200746EA064603
:1057B00002FA07F74FEA164646EA0706C3F1200742
:1057C00022FA03F201FA07F721FA03F14FF000037E
:1057D00042EA0702A7E746EA020646EA06464FEA19
:1057E000164646EA0106BCBF46EA0646360C4FF0AE
:1057F00000034FF000024FF0000194E72DE9804CC8
:105800009A46934670B491E8380007C831EA400CD4
:1058100048BF34EA430C03D5FFF7E6FDFFF780FFEE
:10582000F0BCBDE8008C2DE9804C9A46934670B4DC
:1058300091E8380007C810F0804F08BF13F0804F80
:1058400003D100F005F8FFF76BFFF0BCBDE8008C5A
:1058500020F07F4780EA030023F07F4C07EB0C0326
:10586000A3F57C5300F00040A3F1FE0392F0000F7B
:1058700000F0B38095F0000F00F077802DE901492A
:105880004FEA11404FEA144621EA004800FB06FCAB
:1058900024EA064708FB06F607FB08F800FB07F7B3
:1058A00018EB06484CEB164C4FEA124B18EB074826
:1058B0004FEA15464CEB174022EA0B4E0BFB06FC59
:1058C00025EA06470EFB06F607FB0EFE0BFB07F765
:1058D0001EEB064E4CEB164C4FF000061EEB074E2F
:1058E0004CEB174B18EB0B0840F1000018EB0E0BBC
:1058F00058EB000840F100008F1A4FF000013CBF48
:10590000C943661B14BFB5EB040C00213CBFC9435F
:10591000F61B4FEA17444EEA8E0E27EA04454FEA7B
:105920001C4704FB07622CEA074C05FB07F70CFB3E
:1059300005F604FB0CFC16EB074642EB174216EB90
:105940000C4642EB1C421BEB060658EB020241419F
:1059500046EA9E0601D5BDE80189B619524141EBE0
:105960000101A3F10103BDE801894FEA14454FEAA3
:10597000114724EA054621EA074C05FB07F406FB1C
:1059800007F70CFB06F105FB0CFC11EB074144EBA0
:1059900017444FEA124711EB0C4144EB1C4422EA36
:1059A000074C05FB07F206FB07F70CFB06F605FBA9
:1059B0000CFC16EB074642EB174216EB0C4642EB8B
:1059C0001C456A1854F1000148BF7047B61952418E
:1059D00041EB0101A3F10103704795F0000F37D0AF
:1059E0004FEA11424FEA144721EA024624EA074CE3
:1059F00002FB07F106FB07F70CFB06F402FB0CFCAD
:105A000014EB074441EB17414FEA154714EB0C44E4
:105A100041EB1C4125EA074C02FB07F506FB07F7A3
:105A20000CFB06F602FB0CFC16EB074645EB174594
:105A300016EB0C4645EB1C42121951F1000148BF10
:105A40007047B619524141EB0101A3F101037047C0
:105A50004FEA14454FEA114724EA054621EA074C6C
:105A600005FB07F106FB07F70CFB06F24FF00006FB
:105A700005FB0CFC12EB074241EB174112EB0C4209
:105A800051EB1C4148BF7047921841EB0101A3F153
:105A90000103704703B401984100009850EAC12007
:105AA00018BF04204A0D18BF40F0010040F2FF72F9
:105AB000B2EB515F08BF40F00200012808BF05208B
:105AC00002B0704730380A2801D201207047002008
:105AD0007047000010B500290AD00878002807D0C8
