:020000040800F2
:10000000D806002071340008C9280008CB28000851
:10001000CF280008D3280008D728000800000000D7
:10002000000000000000000000000000DB280008C5
:10003000DD28000800000000DF280008E128000893
:100040008B3400088B3400088B3400088B34000894
:100050008B3400088B3400088B3400088B34000884
:100060008B3400088B3400088B3400088B34000874
:100070008B3400088B3400088B3400088B34000864
:100080008B3400088B3400088B3400088B34000854
:100090008B3400088B3400088B3400080B290008CF
:1000A0008B3400088B3400088B3400088B34000834
:1000B0008B3400088B3400088B3400088B34000824
:1000C0008B3400088B3400088B3400088B34000814
:1000D0008B3400088B3400088B3400088B34000804
:1000E000272900088B3400088B3400088B34000863
:1000F0008B3400088B3400088B3400088B340008E4
:100100008B3400088B3400088B3400088B340008D3
:100110008B3400088B3400088B3400088B340008C3
:100120008B3400088B3400088B3400088B340008B3
:100130008B3400088B3400088B3400088B340008A3
:100140008B3400088B3400088B3400088B34000893
:100150008B3400088B3400088B3400088B34000883
:100160008B3400088B3400088B3400088B34000873
:100170008B3400088B3400088B3400088B34000863
:100180008B3400088B34000800F002F800F04CF8C3
:100190000AA090E8000C82448344AAF10107DA45E2
:1001A00001D100F041F8AFF2090EBAE80F0013F0E8
:1001B000010F18BFFB1A43F001031847D84C000089
:1001C000F84C0000103A24BF78C878C1FAD852071A
:1001D00024BF30C830C144BF04680C6070470000C1
:1001E0000023002400250026103A28BF78C1FBD840
:1001F000520728BF30C148BF0B607047662904F022
:100200005F84642903F00483002070471FB504F065
:1002100052FC03F067FE04000020002104F0BEFB46
:10022000E0601FBD10B510BD03F05CFF1146FFF785
:10023000EDFF02F0EDFA03F07AFF03B4FFF7F2FFEF
:1002400003BC03F0BDFF000032490143324A116094
:10025000704770B5002100230F22C4781CB32E4CC8
:10026000246804F4E064C4F5E064C4F30721C1F138
:100270000404E3B20A4144789C40E1B2847814401B
:1002800021430C07210E254C05786155047804F0B4
:100290001F050124AC4005786D11AD0005F1E02586
:1002A000C5F8004109E0047804F01F050124AC40C2
:1002B0001B4D0678761145F8264070BD194A0A4054
:1002C0000243154B1B1F1A60704739B1124A121DA9
:1002D00012680243104B1B1D1A6006E00E4A121DE5
:1002E000126882430C4B1B1D1A607047042808D10A
:1002F0004FF0E021096941F004014FF0E022116163
:1003000007E04FF0E021096921F004014FF0E022FD
:10031000116170470000FA050CED00E000E400E018
:1003200080E100E080FFFF1F10B50121080200F00E
:100330001BFE00214FF4807000F016FE10BD30B59A
:100340000246002000235068F84C20400D790C68CC
:1003500044EA0524204350609068F54C2040D1E9E0
:1003600003542C438D682C434D7944EA45042043C3
:100370009060D06A20F470000C7D641EE4B22343C8
:1003800040EA0350D06230BD00210160017141712B
:100390008160C16001610121017570470021E54A5A
:1003A0001168E54A1140D0E900231A4383681A43D3
:1003B000C3681A431143E14AC2F80413704700218D
:1003C000016041608160C160704721B1826842F084
:1003D0000102826003E0826822F0010282607047BD
:1003E0000A4600214168D64B1940114341607047CD
:1003F0004162826270470A460021416821F01F0174
:1004000011434160704738B1CA49096841F400019D
:10041000CA4AC2F8041306E0C649096821F400017B
:10042000C64AC2F80413704738B1C249096841F49A
:100430008001C24AC2F8041306E0BE49096821F4EB
:100440008001BE4AC2F804137047F0B504460D4659
:1004500000200021092D11DDE068A5F10A0606EB58
:100460004607072606FA07F18843A5F10A0606EBB8
:10047000460603FA06F10843E0600CE0206905EB4C
:100480004507072606FA07F1884305EB450603FAF8
:1004900006F108432061072A0FDA606B561E06EB4F
:1004A00086071F2606FA07F18843561E06EB8606C6
:1004B00005FA06F10843606322E00D2A0FDA206B8B
:1004C000D61F06EB86071F2606FA07F18843D61FBC
:1004D00006EB860605FA06F10843206310E0E06AA1
:1004E000A2F10D0606EB86071F2606FA07F18843E0
:1004F000A2F10D0606EB860605FA06F10843E06256
:10050000F0BD816841F08041816070470146002064
:100510008A6802F480020AB1012000E000207047DE
:1005200021B1826842F48062826003E0826822F432
:1005300080628260704721B1826842F0020282606C
:1005400003E0826822F002028260704710B50A461A
:1005500000210023416821F46041531E41EA4331E8
:10056000416010BD21B1426842F40062426003E084
:10057000426822F40062426070470146C86C80B253
:1005800070476C48001D0068704721B1826842F4D2
:100590008072826003E0826822F480728260704719
:1005A00021B1826842F40072826003E0826822F422
:1005B00000728260704738B15E49096841F40051A9
:1005C0005E4AC2F8041306E05A49096821F4005152
:1005D0005A4AC2F804137047F0B504461546002085
:1005E00000220026092911DDE068A1F10A0707EBC6
:1005F000470C072707FA0CF29043A1F10A0707EB13
:10060000470703FA07F21043E0600CE0206901EBB2
:10061000410C072707FA0CF2904301EB410703FA5C
:1006200007F210432061A06BC0F30156EF1C06F1E6
:10063000010CA7EB0C0707EB870C1F2707FA0CF23E
:100640009043EF1C06F1010CA7EB0C0707EB8707A3
:1006500001FA07F21043A063F0BD10B50A4600216D
:100660000023816B21F44011531E41EA0351816341
:1006700010BD08B5002300930090009B0B4400932D
:10068000009B1A6008BD0A460021816821F4702190
:100690001143816070470A460021816821F44011AE
:1006A000114381607047816841F480018160704727
:1006B000014600208A6802F480020AB1012000E0AD
:1006C0000020704721B1426842F48062426003E03A
:1006D000426822F480624260704721B1426842F46D
:1006E0008052426003E0426822F4805242607047C8
:1006F00008B5024600200090009201F12800009BFE
:10070000184400900098006880B208BD10B50B46F0
:100710000021D9B2012404FA01F11AB144680C4352
:10072000446002E044688C43446010BDFFFEFFFC5F
:10073000FDF7FFC004230140E030FCFF0020014032
:10074000FFFD3FFF0246002013680B400BB1012064
:1007500000E000207047CA430260704770B502464F
:100760000020002300240B12556801268E4005EA64
:10077000060415681D4015B10CB1012000E00020F1
:1007800070BD00220A12D343036070470020444921
:100790000860091D0860091D0860091D08604148BE
:1007A0003F4914310860704700213D498279002A91
:1007B0003AD00A46126803689A430B461A600A1D2B
:1007C000126803689A430B1D1A60027911440A6883
:1007D00003681A430A60324A0832126803689A436F
:1007E0002F4B08331A601A1D126803689A432C4B6A
:1007F0000C331A604279102A0ED11A1F126803684E
:100800001A43274B08331A601A1D126803681A43EB
:10081000234B0C331A600DE02149427911440A68D8
:1008200003681A430A6005E0027911440A68036804
:100830009A430A6070470021016001710C214171E7
:100840000021817170471649103109680143144A2B
:1008500010321160704701460020114A14321268AC
:100860000A400AB1012000E0002070470C49143111
:1008700008607047014600200022094B1B6803EA0C
:100880000102074B14331B680B4013B10AB101205E
:1008900000E00020704702491431086070470000F2
:1008A000003C0140FFFF7F0010B504468C488442A5
:1008B00008D10121084600F000FB0021012000F0D2
:1008C000FCFA5EE08748844208D10121022000F052
:1008D000F4FA0021022000F0F0FA52E0824884424B
:1008E00008D10121042000F0E8FA0021042000F0E2
:1008F000E4FA46E07D48844208D10121082000F056
:10090000DCFA0021082000F0D8FA3AE07848844266
:1009100008D10121102000F0D0FA0021102000F0B1
:10092000CCFA2EE07348844208D10121202000F047
:10093000C4FA0021202000F0C0FA22E06E48844270
:1009400008D10121402000F0B8FA0021402000F039
:10095000B4FA16E06948844208D10121802000F0F1
:10096000ACFA0021802000F0A8FA0AE06448844232
:1009700007D10121801500F0A0FA0021A01500F098
:100980009CFA10BDF0B50A4600210023002400BFE8
:100990003DE0012505FA01F3156805EA03049C42D0
:1009A00034D105684F000326BE40B5430560157974
:1009B0004E00B5400668354305601579012D02D01B
:1009C0001579022D16D185684F000326BE40B54328
:1009D000856055794E00B540866835438560456829
:1009E00001268E40B5434560456896798E40B6B283
:1009F00035434560C5684F000326BE40B543C5601A
:100A0000D5794E00B540C6683543C560491C1029EC
:100A1000BFD3F0BD4FF6FF7101600021017141713C
:100A20008171C171704708B54FF480320092009A0D
:100A30000A430092009AC261C161009AC261C26910
:100A40000092C269009208BD0246002013690B4063
:100A50000BB1012000E0002070470146086980B218
:100A600070470246002053690B400BB1012000E0A3
:100A7000002070470146486980B270470183704783
:100A8000418370470AB1018300E0418370474161AF
:100A9000704742694A4042617047F0B50023002424
:100AA0004D07ED0E02FA05F3CE1000F1200555F8C2
:100AB00026504E07F70E0F26BE40B543CF1000F16B
:100AC000200646F82750CE1000F1200555F8265094
:100AD00045EA0304CE1000F1200545F82640F0BD9C
:100AE000000002400004024000080240000C0240E6
:100AF000001002400014024000180240001C024096
:100B000000200240FA48006840F00100F8490860FF
:100B10000020F74908310860F5480068F5490840A9
:100B2000F3490860F448091D0860081F006820F4B4
:100B30008020091F08600020ED490C3108607047D3
:100B40000021EB4A921C117011460870704710B5D5
:100B500001460022002300204A11012A02D1E44C60
:100B6000236808E0022A03D1E14C7034236802E0D4
:100B7000DF4C7434236801F01F02012494401C40B0
:100B80000CB1012000E0002010BD38B5002000901D
:100B90000024002500BF3120FFF7D9FF054600984B
:100BA000401C00900098B0F5A06F01D0002DF2D04D
:100BB0003120FFF7CCFF08B1012400E000242046DB
:100BC00038BD01460020CA4A106820F0F80040EA0B
:100BD000C10010607047C949086070470021C44ACD
:100BE000703211701170012802D004280AD104E07B
:100BF0000121BF4A7032117005E00521BC4A7032F4
:100C0000117000E000BF00BF7047BD490860704729
:100C100070B5049C41EA82150126C6EB530645EAED
:100C20000645054345EA0465B14E361D356070BD85
:100C3000B24908667047820142EA0172AC4B8433C4
:100C40001A607047AD4988667047AC49C864704700
:100C500002460020A64B0833186820F0EC6042EAF8
:100C600001031843A24B0833186070470246002066
:100C70009F4B0833186820F0784042EA010318437C
:100C80009B4B08331860704701460020984A083291
:100C9000106820F003000843106070479448083043
:100CA000006800F00C00704701460020904A0832AE
:100CB000106820F0F00008431060704701460020E3
:100CC0008B4A0832106820F4E050084310607047E7
:100CD00001460020864A0832106820F4604040EA4D
:100CE000C10010607047F0B50021002200240225E9
:100CF000002602237E4F08373F6807F00C0121B120
:100D0000042905D0082937D105E07E4F076036E079
:100D10007D4F076033E0764F3F1D3F68C7F3805635
:100D2000734F3F1D3F6807F03F036EB1764FB7FB2F
:100D3000F3F7DFF8BCC10CF1040CDCF800C0CCF315
:100D4000881C07FB0CF40CE06E4FB7FBF3F7DFF8E1
:100D5000A0C10CF1040CDCF800C0CCF3881C07FB2C
:100D60000CF4634F3F1D3F68C7F301477F1C7D00B4
:100D7000B4FBF5F7076002E0624F076000BF00BFF9
:100D80005B4F08373F6807F0F00109095F4F7A5C55
:100D90000768D7404760564F08373F6807F4E0516F
:100DA000890A5A4F7A5C4768D7408760504F0837A6
:100DB0003F6807F46041490B544F7A5C4768D7405D
:100DC000C760F0BD002100F44072B2F5407F0AD147
:100DD000474A0832116821F4F8114D4A0240114384
:100DE000434A08321160424A70321268C0F30B0362
:100DF0001A433F4B70331A607047414944390860C9
:100E000070473F4940390860704742490860704761
:100E100039B1374A303212680243354B30331A60E9
:100E200006E0334A303212688243314B30331A6065
:100E3000704739B12E4A3432126802432C4B343396
:100E40001A6006E02A4A343212688243284B34334F
:100E50001A60704739B1264A383212680243244B6F
:100E600038331A6006E0224A383212688243204B37
:100E700038331A60704739B11D4A40321268024354
:100E80001B4B40331A6006E0194A40321268824315
:100E9000174B40331A60704739B1154A4432126813
:100EA0000243134B44331A6006E0114A443212687D
:100EB00082430F4B44331A60704739B10C4A1032E9
:100EC000126802430A4B10331A6006E0084A1032D7
:100ED00012688243064B10331A607047E1B1044A2E
:100EE000143212680243024B14331A6019E00000F6
:100EF00000380240FFFFF6FE103000240000474299
:100F0000800E47420024F40000127A000000002006
:100F1000FFFCFF0F5C0147425B4A126882435A4B59
:100F20001A60704739B1584A121D12680243564B75
:100F30001B1D1A6006E0544A121D12688243524B70
:100F40001B1D1A60704739B14F4A0C3212680243B8
:100F50004D4B0C331A6006E04B4A0C321268824348
:100F6000494B0C331A60704739B1474A1032126846
:100F70000243454B10331A6006E0434A10321268B0
:100F80008243414B10331A60704739B13E4A3C32BC
:100F9000126802433C4B3C331A6006E03A4A3C324A
:100FA00012688243384B3C331A60704739B1364A75
:100FB000403212680243344B40331A6006E0324A32
:100FC000403212688243304B40331A60704739B167
:100FD0002D4A4432126802432B4B44331A6006E018
:100FE000294A443212688243274B44331A607047BF
:100FF00039B1254A4C3212680243234B4C331A60F4
:1010000006E0214A4C32126882431F4B4C331A606F
:10101000704739B11C4A5032126802431A4B5033A0
:101020001A6006E0184A503212688243164B503359
:101030001A60704739B1144AD21F12780243124B1A
:10104000DB1F1A7006E0104AD21F127882430E4B43
:10105000DB1F1A7070470C486030006840F08070E9
:10106000094960310860704701460020064A083A85
:1010700012680A400AB1012000E0002070470249CE
:10108000891F0870704700001438024010B50446EC
:10109000F748844208D101218014FFF765FF002141
:1010A000A014FFF761FF16E0F248844208D1012145
:1010B0000014FFF748FF00212014FFF744FF0AE067
:1010C000ED48844207D10121C013FFF73CFF002106
:1010D000E013FFF738FF10BD10B50022028802F4BC
:1010E00041520B884C8823438C882343CC8823436C
:1010F0000C8923434C8923438C892343CC89234384
:101100001A430280838B4FF2FF74234083830B8A40
:10111000038210BD2DE9F04F002502230024012792
:1011200000220026944690469146B0F81CA04FF24B
:10113000400B0AEA0B0AA0F81CA04FF0020AA0F824
:1011400020A0858BD1F808A0BAF1020F01D100BF11
:101150006CE0B1F804A0BAF1000F01D1012700E062
:101160000227DFF818A3DAF800A00AF4000ABAF19F
:10117000000F09D0DFF804A3DAF800A02AF4000A6F
:10118000DFF8F8B2CBF800A0DFF8F0A20AF17C0A91
:10119000DAF800A0CAF38818DFF8E0A20AF17C0AA6
:1011A000DAF800A0CAF30279DFF8D0A2AAF1040AA3
:1011B000DAF800A00AF03F0CDFF8C4A2BAFBFCFA90
:1011C0000AFB08FABAFBF9F6B1F806A0BAF5007FF7
:1011D0000ED14FEA162A0AEB8A0A4FEA4A0AD1F8D8
:1011E00008B0BAFBFBFA0AF1050A1FFA8AF20FE00F
:1011F0004FEA471AB6FBFAFA0AEB8A0A4FEA4A0A9A
:10120000D1F808B0BAFBFBFA0AF1050A1FFA8AF214
:101210004FF00A0AB2FBFAF202F00104A2EB040A50
:10122000CAF34F034FF6FF7A0AEA0424022B01DBCC
:10123000FF2B01DD02230024B1F806A04AEA040ACC
:101240004AEA030AA0F820A0B1F804A0B1F80CB053
:101250004AEA0B0AB1F802B04AEA0B0AB1F800B048
:101260004AEA0B0A4AF4006A4AEA05058583BDE8A2
:10127000F08F0021018041808180C1800181418106
:101280008181C18107210182704700210180418055
:101290008180C1800221816000218181704721B15C
:1012A000028842F04002028004E002884FF6BF73D9
:1012B0001A400280704721B1828B42F4806282839F
:1012C00004E0828B4FF6FF331A4082837047028816
:1012D0004FF2FF731A40028002880A43028070476F
:1012E000B1F5804F04D1028842F48042028004E0CC
:1012F00002884BF6FF731A40028070474FF6FF6278
:10130000914204D0028842F48072028004E0028894
:101310004FF6FF631A400280704721B1828842F085
:101320000402828004E082884FF6FB731A408280B8
:10133000704721B1828842F01002828004E08288E6
:101340004FF6EF731A408280704730B500220023B9
:10135000848B4FF240052C40848302240484828BCA
:101360000C88B4F5007F01D00C8814B94FF4807359
:1013700008E00C88B4F5407F03D00C88B4F5807F7A
:1013800000D100238C888D892C434D882C431C432D
:1013900044F400642243828330BD0146888970474B
:1013A0008181704721B1028842F40052028004E03A
:1013B00002884DF6FF731A4002807047018841F49D
:1013C00080510180704702460020012901D0108B16
:1013D00000E0908A70470146088A70471AB18388F6
:1013E0000B43838002E083888B438380704730B552
:1013F000002400230C110125A540ABB21AB1858849
:101400001D43858002E085889D43858030BD02466E
:10141000002013890B400BB1012000E00020704731
:10142000CA4302817047F0B5024600200024002321
:10143000002501F00F070126BE40B4B20B110126B2
:101440009E40B3B2968806EA03051689264016B177
:101450000DB1012000E00020F0BD10B5002201F028
:101460000F040123A3409AB2D343038110BD0000AF
:101470000030014000380040003C00400838024085
:1014800000127A0010B501218803FFF76DFD0021DD
:101490004FF48040FFF768FD10BD1A49086070479F
:1014A00030B500228B071C0F0F2303FA04F2154BF3
:1014B00008338C1053F824309343124C08348D10A9
:1014C00044F8253023468C1053F824308C07240F21
:1014D00000FA04F423430B4C08348D1044F82530F3
:1014E00030BD09490860704708490860704700200E
:1014F00004492031096801F4807109B1012000E03C
:101500000020704700380140DC00274200042742D9
:1015100010B50446FE48844208D101210846FFF771
:1015200023FD00210120FFF71FFD9DE0B4F1804F56
:1015300008D101210846FFF706FD00210120FFF731
:1015400002FD91E0F348844208D101210220FFF717
:10155000FAFC00210220FFF7F6FC85E0EE48844209
:1015600008D101210420FFF7EEFC00210420FFF741
:10157000EAFC79E0E948844208D101210820FFF71C
:10158000E2FC00210820FFF7DEFC6DE0E448844225
:1015900008D101211020FFF7D6FC00211020FFF711
:1015A000D2FC61E0DF48844208D101212020FFF70E
:1015B000CAFC00212020FFF7C6FC55E0DA4884422F
:1015C00008D101210220FFF7CFFC00210220FFF704
:1015D000CBFC49E0D548844209D101210804FFF73A
:1015E000C3FC00214FF48030FFF7BEFC3CE0D04844
:1015F000844209D101214804FFF7B6FC00214FF4D1
:101600000030FFF7B1FC2FE0CA48844209D1012124
:101610008804FFF7A9FC00214FF48020FFF7A4FC09
:1016200022E0C548844208D101214020FFF78BFC0D
:1016300000214020FFF787FC16E0C048844208D113
:1016400001218020FFF77FFC00218020FFF77BFC39
:101650000AE0BB48844207D101218015FFF773FCE3
:101660000021A015FFF76FFC10BD00220288A84BD7
:1016700098420ED0AC4B98420BD0B0F1804F08D0BE
:10168000A44B984205D0A44B984202D0A34B984259
:1016900004D14FF68F731A404B881A43A04B9842DF
:1016A00007D0A04B984204D04FF6FF431A400B8955
:1016B0001A4302804B68C3620B880385944B98429F
:1016C00002D0994B984201D18B7A03860123838201
:1016D00070474FF0FF31416000210180018141805E
:1016E000817270470185828270470A460021018815
:1016F0004FF68F7319401143018070474162704764
:10170000C16270470146486A70470146088D7047BC
:1017100021B1028842F00202028004E002884FF602
:10172000FD731A400280704721B1028842F0040222
:10173000028004E002884FF6FB731A400280704773
:1017400021B1028842F08002028004E002884FF654
:101750007F731A400280704702884FF6F7731A4071
:10176000028002880A430280704702884FF6FF43D6
:101770001A40028002880A430280704721B1028821
:1017800042F00102028004E002884FF6FE731A4024
:101790000280704770B5002400220023058C4FF6AC
:1017A000FE7635400584028C8388048B4FF68F7556
:1017B0002C40B51E2C400D882C43751E2A408D8967
:1017C0002A434D882A43524DA84202D0564DA84282
:1017D00013D14FF6F7752A40CD892A434FF6FB7592
:1017E0002A408D882A434FF6FF652B404FF6FF5560
:1017F0002B400D8A2B434D8A2B43838004838D68B5
:101800004563028470BD70B5002400220023058C5E
:101810004FF6EF7635400584028C8388048B48F6BA
:10182000FF752C404FF6FF452C400D884FF6FF7694
:1018300006EA05252C434FF6DF752A408D8906EA16
:1018400005152A434D8806EA05152A43304DA8425E
:1018500002D0354DA8421DD14FF67F752A40CD8963
:101860004FF6FF7606EA05152A434FF6BF752A4064
:101870008D8806EA05152A434FF6FF352B404FF2B7
:10188000FF752B400D8A06EA85052B434D8A06EA33
:1018900085052B43838004838D688563028470BD36
:1018A00070B5002400220023058C4FF6FF663540FA
:1018B0000584028C8388848B4FF68F752C404FF6FD
:1018C000FC752C400D882C434FF6FF552A408D891E
:1018D0004FF6FF7606EA05252A434D8806EA0525D8
:1018E0002A430B4DA84202D00F4DA84238D14FF2E7
:1018F000FF752A40CD894FF6FF7606EA05252A4373
:101900004FF6FF352A408D8806EA05252A4319E05F
:10191000000001400004004000080040000C0040AE
:10192000001000400014004000040140004001404D
:10193000004401400048014000180040001C0040E5
:10194000002000404EF6FF752B404DF6FF752B40F2
:101950000D8A06EA05152B434D8A06EA05152B4329
:10196000838084838D68C563028470BD70B5002256
:1019700000230024058C4EF6FF7635400584038C49
:101980008488828B48F6FF752A404FF6FF452A402F
:101990000D884FF6FF7606EA05252A434DF6FF75BA
:1019A0002B408D8906EA05352B434D8806EA05351F
:1019B0002B43FE4DA84202D0FD4DA84208D14BF664
:1019C000FF752C400D8A4FF6FF7606EA85152C43ED
:1019D000848082838D680564038470BD002101804A
:1019E0004180818081608181C18101824182704713
:1019F00070B50346002000241846183001258D409C
:101A0000ACB21D8CA5431D8409B108290AD100EB95
:101A1000610005684FF68F7635400560056815430F
:101A200005600FE00D1FC5F34E052844056848F614
:101A3000FF763540056005684FF6FF7606EA022618
:101A40003543056070BD4163704781637047C16372
:101A50007047016470470A460021018B4FF68F736F
:101A600019401143018370470A460021018B48F653
:101A7000FF7319404FF6FF7303EA022319430183F2
:101A800070470A460021818B4FF68F73194011432E
:101A9000818370470A460021818B48F6FF73194005
:101AA0004FF6FF7303EA02231943818370470A4606
:101AB0000021018B4FF6F7731940114301837047E2
:101AC0000A460021018B4FF2FF7319404FF6FF7356
:101AD00003EA02231943018370470A460021818BE0
:101AE0004FF6F77319401143818370470A4600216E
:101AF000818B4FF2FF7319404FF6FF7303EA022305
:101B00001943818370470A460021018B4FF6FB730E
:101B100019401143018370470A460021018B4FF69B
:101B2000FF3319404FF6FF7303EA02231943018381
:101B300070470A460021818B4FF6FB731940114311
:101B4000818370470A460021818B4FF6FF3319408D
:101B50004FF6FF7303EA02231943818370470A4655
:101B60000021018B4FF67F731940114301837047A9
:101B70000A460021018BC1F30E014FF6FF7303EA01
:101B800002231943018370470A460021818B4FF6D7
:101B90007F7319401143818370470A460021818B6E
:101BA000C1F30E014FF6FF7303EA02231943818349
:101BB00070470A460021018C4FF6FD73194011430E
:101BC000018470470A460021018C4FF6F7731940D3
:101BD0001143018470470A460021018C4FF6DF73E0
:101BE00019404FF6FF7303EA02131943018470474B
:101BF0000A460021018C4FF67F7319404FF6FF73A0
:101C000003EA02131943018470470A460021018C3C
:101C10004FF6FF5319404FF6FF7303EA02231943AF
:101C2000018470470A460021018C4FF2FF7319406E
:101C30004FF6FF7303EA02231943018470470A46F3
:101C40000021018C4DF6FF7319404FF6FF7303EA34
:101C5000023319430184704730B5002301248C40BE
:101C6000A3B2048C9C430484048C02FA01F5ADB247
:101C70002C43048430BD30B5002304248C40A3B22F
:101C8000048C9C430484048C02FA01F5ADB22C430D
:101C9000048430BD828B4FF2FF331A408283828BE3
:101CA0004FF6FF7303EA01231A4382837047F0B5AE
:101CB0000C461546002100220026078C4EF6FF7CBC
:101CC00007EA0C070784818B028C4FF6FF7707EA3F
:101CD000043640F6FF4739404FF6FF7707EA0527FD
:101CE00039434FF6FF7707EA0337394345F6FF7765
:101CF0003A4046F480573A4381830284F0BD828B98
:101D00004FF6F3731A408283828B0A4382837047B3
:101D1000F0B50C461546002100220026078C4FF630
:101D2000FF6C07EA0C070784818B028C4FF6FF7764
:101D300007EA04264FF60C7739404FF6FF7707EA9B
:101D400003172F4339434FF2FF573A4046F4807749
:101D50003A4381830284F0BD028B4FF2FF331A4075
:101D60000283028B4FF6FF7303EA01231A430283B7
:101D70007047F0B50C461546002100220026078C5E
:101D80004FF6EF7C07EA0C070784018B028C4FF6B5
:101D9000FF7707EA041640F6FF4739404FF6FF7712
:101DA00007EA033739434FF6FF7703E000000140AD
:101DB0000004014007EA052739434FF65F773A40B0
:101DC00046F010073A4301830284F0BD028B4FF6C0
:101DD000F3731A400283028B0A4302837047F0B503
:101DE0000C46154600210022068C4FF6FE773E4039
:101DF0000684018B028C4FF60C7631407E1C06EA7D
:101E000003162E4331434FF6F576324044F0010677
:101E1000324301830284F0BD70B505460C4620882C
:101E200050B92389A28861882846FFF7D8FFE18846
:101E30002846FFF7CBFF25E0208804280AD1238914
:101E4000A28861882846FFF794FFE1882846FFF7BB
:101E500083FF17E0208808280AD12389A288618897
:101E60002846FFF755FFE1882846FFF748FF09E0BD
:101E70002389A28861882846FFF719FFE188284650
:101E8000FFF708FF70BD00210180418001218180A2
:101E90000021C180018170472DE9F04105460C46C3
:101EA00000260127608808B9022600E00026A088E5
:101EB000012801D1022700E001272088A0B9238949
:101EC000A28861882846FFF78AFFE1882846FFF745
:101ED0007DFF23893A4631462846FFF74AFFE188CD
:101EE0002846FFF739FF13E02389A2886188284636
:101EF000FFF73FFFE1882846FFF72EFF23893A4688
:101F000031462846FFF76BFFE1882846FFF75EFF62
:101F1000BDE8F0810146486B70470146886B704709
:101F20000146C86B70470146086C70470A884B88A9
:101F30001A438B881A43CB881A430B891A434B895F
:101F40001A438B891A43A0F844207047002101806E
:101F500041808180C180018141818181704731B19F
:101F6000B0F8442042F40042A0F8442005E0B0F864
:101F70004420C2F30E02A0F84420704721B18288A9
:101F800042F00402828004E082884FF6FB731A401C
:101F90008280704721B1828842F00102828004E091
:101FA00082884FF6FE731A40828070471AB1838987
:101FB0000B43838102E083898B4383817047818255
:101FC000704702460020138A0B400BB1012000E04D
:101FD00000207047CA430282704730B50246002095
:101FE00000230024158A05EA0103958905EA010406
:101FF00013B10CB1012000E0002030BDCA430282C1
:10200000704741EA0203A0F8483070471AB183894B
:102010000B43838102E083898B438381704721B125
:10202000828842F00802828004E082884FF6F773CB
:102030001A408280704701894FF6F8721140018181
:1020400070470A46002101894FF68F7319401143EA
:102050000181704730B504460D4629462046FFF7FA
:10206000F0FF208940F00700208130BD2DE9F041CC
:1020700004460D4616461F46602D06D13B460122FA
:1020800031462046FFF775FE05E03B46012231460A
:102090002046FFF7A4FE29462046FFF7D2FF2089FD
:1020A00040F007002081BDE8F08130B50C460021EA
:1020B0000189C9B24FF6FF7505EA0325154325438B
:1020C0002943018130BD2DE9F04105460E461746F2
:1020D0009846002443463A4631462846FFF7E5FF36
:1020E0002C894FF6F870044044F007044FF68F70C7
:1020F000044044F070042C81BDE8F081F0B5044642
:102100000D4616461F463B46324629462046FFF7F7
:10211000CCFF208940F480402081F0BD82884FF6BA
:102120008F731A40828082880A43828070470289B6
:102130004FF6F8731A40028102890A430281704700
:1021400002894FF67F731A40028102890A43028195
:102150007047F0B50C4615461E46002100220023AC
:102160000189028B038C4FF6F877394021434FF6F3
:10217000FC473A4040F201173A434FF6DD773B40C7
:102180004FF6FF7707EA06172F433B43018102838F
:102190000384F0BD21B1828842F08002828004E095
:1021A00082884FF67F731A4082807047A0F85010E3
:1021B000704700007047FE480078401C40B2FC4960
:1021C000087070470120FB49087070470246531899
:1021D00003EBD3704010704710B5F748007810B18A
:1021E00001281ED113E0F548006840F6020188423C
:1021F0000CDD0120F0490870F1480088401C00B255
:10220000EF4908804FF47A7000F0FDFB09E0EB48DD
:10221000006840F60201884202DA0020E6490870B0
:1022200000BF00BF10BD10B5E648007810B101280E
:102230003DD13DE04FF40061E348FEF721FC4FF44F
:102240008051E148FEF71CFC4FF48061DF48FEF747
:1022500017FC4FF40061DD48FEF712FC4FF480518B
:10226000DA48FEF70DFC0421D948FEF709FC4FF4CB
:102270008071D548FEF704FC1021D648FEF700FC1B
:102280004FF48051D348FEF7FBFB0421CE48FEF704
:10229000F7FB4FF40061CF48FEF7F2FBC748006838
:1022A00040F60201884202DD0120C649087044E080
:1022B0000120C9490870C102C348FEF7DFFB4FF493
:1022C0008051C148FEF7DAFB4FF48061BF48FEF74A
:1022D000D5FB4FF40061BD48FEF7D0FB4FF48051B1
:1022E000BA48FEF7CBFB0421B948FEF7C7FB4FF411
:1022F0008071B548FEF7C2FB1021B648FEF7BEFB61
:102300004FF48051B348FEF7B9FB0421AE48FEF705
:10231000B5FB4FF40061AF48FEF7B0FB4FF4FA5144
:10232000881000F054FEA548006840F6020188427B
:1023300002DA0020A349087000BF00BF10BD70B5CD
:10234000A648007830B101280ED002281DD00328FD
:1023500009D12FE09948006840F60201884202DD69
:1023600001209E490870C2E1322000F04CFB9348E6
:10237000006840F60201884206DA00F041FB984905
:102380000860022095490870B1E100F039FB9449DA
:102390000968401A6421B0FBF1F000B2914908804D
:1023A0008648006840F60201884202DD03208B491E
:1023B00008709CE18B48B0F900000A2190FBF1F213
:1023C00001FB12048748B0F9000090FBF1F52346A9
:1023D0002A4685A1864801F0C5F9854800F010FC21
:1023E0004FF400617848FEF749FB4FF4805176487E
:1023F000FEF744FB4FF480617448FEF73FFB4FF457
:1024000000617248FEF73AFB4FF480516F48FEF7C7
:1024100035FB04216E48FEF731FB4FF480716A48AA
:10242000FEF72CFB10216B48FEF728FB4FF4805180
:102430006848FEF723FB04216348FEF71FFB4FF4B7
:1024400000616448FEF71AFB4FF47A7000F0DBFA83
:1024500000F060FC4FF400615B48FEF711FB4FF4A5
:1024600080515948FEF70CFB4FF480615748FEF746
:1024700007FB4FF400615548FEF702FB4FF4805113
:102480005248FEF7FDFA04215148FEF7F9FA4FF4DD
:1024900080714D48FEF7F4FA10214E48FEF7F0FA2D
:1024A0004FF480514B48FEF7EBFA04214648FEF703
:1024B000E7FA4FF400614748FEF7E2FA4FF47A700A
:1024C00000F0A1FA4A4800F09BFB4FF400613E483F
:1024D000FEF7D4FA4FF480513B48FEF7CFFA4FF4A1
:1024E00080613A48FEF7CAFA4FF400613748FEF7B8
:1024F000C5FA4FF480513548FEF7C0FA042134483C
:10250000FEF7BCFA4FF480712F48FEF7B7FA10219E
:102510003048FEF7B3FA4FF480512E48FEF7AEFA7A
:1025200004212948FEF7AAFA4FF400612948FEF772
:10253000A5FA4FF47A7000F066FA00F0EBFB4FF466
:1025400000612148FEF79CFA4FF480511E48FEF7C7
:1025500097FA4FF480611D48FEF792FA4FF400613C
:102560001A48FEF78DFA4FF480511848FEF788FAA2
:1025700004211748FEF784FA4FF480711248FEF7E1
:102580007FFA10211348FEF77BFA4FF4805111486F
:10259000FEF776FA04210C48FEF772FA4FF4006158
:1025A0000C48FEF76DFA4FF47A7000F02CFA21E037
:1025B0002C00002015000020120000201C0000202C
:1025C0001800002011000020000002400008024016
:1025D000000C024000040240130000201400002000
:1025E00028000020200000202532642E25640000F1
:1025F00022000020994800F003FB4FF40061984846
:10260000FEF73CFA4FF480519548FEF737FA4FF445
:1026100080619448FEF732FA4FF400619148FEF76A
:102620002DFA4FF480518F48FEF728FA04218E4886
:10263000FEF724FA4FF480718948FEF71FFA102143
:102640008A48FEF71BFA4FF480518848FEF716FAC5
:1026500004218348FEF712FA4FF400618348FEF725
:102660000DFA4FF47A7000F0CEF94FF400617C4817
:10267000FEF706FA4FF480517948FEF701FA4FF45D
:1026800080617848FEF7FCF94FF400617548FEF769
:10269000F7F94FF480517348FEF7F2F904217248BC
:1026A000FEF7EEF94FF480716D48FEF7E9F910215D
:1026B0006E48FEF7E5F94FF480516C48FEF7E0F9FB
:1026C00004216748FEF7DCF94FF400616748FEF724
:1026D000D7F94FF47A7000F096F900206449087039
:1026E0006449088040F6B83000F08DF900BF00BFA3
:1026F00070BD10B56048007820B1012805D00228CF
:1027000009D105E0FFF78FFD05E0FFF765FD02E069
:10271000FFF715FE00BF00BF10BD70B5564800782A
:1027200020B101281CD0022838D11FE0534800787E
:1027300010B1012812D103E051A000F061FA0DE0C0
:1027400051A000F05DFA4FF4FA6000F05CF95048D7
:10275000007810B900204949087000BF00BF1DE093
:102760004C48B0F9000000F0ACFA17E04148B0F96D
:1027700000000A2190FBF1F201FB12043D48B0F980
:10278000000090FBF1F523462A46AFF2A41133482E
:1027900000F0E8FF314800F033FA00BF00BF70BD21
:1027A00010B53D48007820B101280AD002280CD18C
:1027B00003E03AA000F024FA07E03AA000F020FA83
:1027C00003E03AA000F01CFA00BF00BF394890F9BE
:1027D0000000032190FBF1F201FB120020B101285F
:1027E00008D0022812D10BE000202B4908702249A2
:1027F00008700BE00220284908701F49087005E0A6
:102800000120254908701C49087000BF00BF10BD99
:1028100000F0B0F800F02AF900F088F900F0EAFAC8
:1028200000F06CFB00F0F0FB16E000F07FFC00F025
:1028300069FC2148016821480068FFF7C7FC20496E
:10284000086020480078012804D1FFF752FFFFF705
:1028500064FF01E0FFF7A4FFE7E70000220000208B
:102860000000024000080240000C02400004024048
:102870001400002020000020100000201300002081
:102880004E6F6E65000000005741524E0000000080
:102890001100002018000020160000205065727200
:1028A0000000000054656D7000000000436F6E74FE
:1028B000000000002C0000204C00002048000020F8
:1028C0001C00002015000020704700BFFEE700BF7D
:1028D000FEE700BFFEE700BFFEE7704770477047A6
:1028E00010B519480068401C17490860174800686F
:1028F000002802DA00201649086014480068401ECB
:1029000012490860FFF756FC10BD10B52020FDF7F6
:10291000B1FF38B1C82000F076F8FFF74CFC20205A
:10292000FDF7B9FF10BD10B54FF40050FDF7A2FF41
:1029300040B1C82000F067F8FFF744FC4FF40050A6
:10294000FDF7A9FF10BD0000340000203800002072
:102950003404004010B5002807DA0A07140E3E4A76
:1029600000F00F031B1FD45403E00A07130E3B4A69
:10297000135410BD10B500F05CFE00F086FE384820
:1029800000684FF47A71B0FBF1F4601EB0F1807F03
:1029900001D301200FE0601E4FF0E02148610F21BC
:1029A0004FF0FF30FFF7D6FF00204FF0E0218861A5
:1029B00007200861002008B100BFFEE74FF4407017
:1029C000FDF742FC0021481EFFF7C4FF0020254907
:1029D000086010BD4FF0E0208069A821B0FBF1F045
:1029E0002049096801EB4102C2EBC1114FF47A7230
:1029F00002EBC101081A1C490860084600687047CC
:102A0000184800687047174A116800BF154A1268D5
:102A1000521A821AFAD1704710B50346FFF7DAFF4F
:102A2000044600BFFFF7D6FF001B181AFAD110BDED
:102A300010B503460C4600BFFFF7CCFF001B9842C1
:102A4000FAD310BD00B5024600BFFFF7D9FF401A08
:102A50009042FAD300BD000018ED00E000E400E071
:102A60006400002034000020300000201CB501214B
:102A70000846FEF7CDF901210220FEF7C9F9012130
:102A80000420FEF7C5F901210820FEF7C1F941F63F
:102A90000410009001208DF8040000208DF806003D
:102AA00003208DF8050000208DF8070069461B48BB
:102AB000FDF768FF41F61000009069461848FDF7E1
:102AC00061FF4FF4E050009069461648FDF75AFF49
:102AD0000420009069461448FDF754FF80200090C0
:102AE00002208DF8070069460C48FDF74BFF822055
:102AF000009002208DF8070069460A48FDF742FF62
:102B000002210848FDF7BCFF80210648FDF7B8FF09
:102B100080210248FDF7B4FF1CBD00000000024008
:102B20000004024000080240000C024000B585B0DD
:102B300001218803FEF7B0F901210620FEF768F9AC
:102B400005210120FEF7ACFC00208DF808008DF86F
:102B50000B002020019001A92748FDF713FF20203A
:102B6000039000208DF8100008208DF8110001203E
:102B70008DF8120003A8FDF717FE17208DF800004E
:102B800001208DF8010000208DF8020001208DF851
:102B900003006846FDF75DFB00208DF808008DF806
:102BA0000B004FF40050019001A91448FDF7EAFE14
:102BB0000D210220FEF774FC4FF40050039000201A
:102BC0008DF8100008208DF8110001208DF81200FA
:102BD00003A8FDF7E9FD28208DF8000001208DF8FD
:102BE000010000208DF8020001208DF803006846E6
:102BF000FDF72FFB05B000BD0004024000080240B5
:102C00002DE9F04105464FF480415948FDF738FF62
:102C100040215848FDF734FF002416E0285D00EB02
:102C200080005549471800260CE000BF0221534898
:102C3000FEF7EDFB0028F9D039785048FEF7B0FBDD
:102C40007F1C761C052EF0DB641C042CE6DB00BF29
:102C500002214A48FEF7DBFB0028F9D000BF8021A3
:102C60004648FEF7D4FB0128F9D040214148FDF742
:102C700005FFBDE8F0811CB50446234640A20521AE
:102C8000684600F083FD6846FFF7BAFF1CBD00B53B
:102C90002DED048B85B0B0EE408A18EE100A01F0DD
:102CA00099FE41EC190B8DED009B37A2052103A87D
:102CB00000F06CFD03A8FFF7A3FF05B0BDEC048B8B
:102CC00000BD1CB50446234631A20521684600F02C
:102CD0005DFD6846FFF794FF1CBD70B505460024F6
:102CE00006E0285D18B92846FFF78AFF70BD641C0E
:102CF000032CF6DB002407E02819FFF781FF4FF4CF
:102D00007A70FFF780FE641CE01C285C0028F3D179
:102D100000BFEBE710B54FF480411548FDF7B0FE5A
:102D200040211448FDF7ACFE00240BE000BF022157
:102D30001248FEF76CFB0028F9D000210F48FEF77F
:102D40002FFB641C142CF1DB00BF02210B48FEF7A3
:102D50005EFB0028F9D000BF80210848FEF757FB32
:102D60000128F9D040210348FDF788FE10BD00007E
:102D70000004024000080240C44A00080038004035
:102D80004525303364000000252E31660000000028
:102D9000253034640000000010B504464FF4804133
:102DA0005348FDF76BFE40215248FDF769FE00BF16
:102DB00002215148FEF72BFB0028F9D021464E484E
:102DC000FEF7EEFA00BF02214B48FEF720FB002879
:102DD000F9D000BF80214848FEF719FB0128F9D03F
:102DE00040214448FDF74AFE4FF480414048FDF73A
:102DF00047FE10BD00B587B001218803FEF73BF800
:102E000001210220FEF704F801210420FEF700F85A
:102E100005220D213648FDF740FE05220F213448DA
:102E2000FDF73BFE02208DF818008DF819000020F8
:102E30008DF81A008DF81B004FF42040059005A96D
:102E40002B48FDF79FFD4FF48040059001208DF841
:102E5000180000208DF81A0003208DF819000020BA
:102E60008DF81B0005A92248FDF78CFD4020059038
:102E700001208DF8180000208DF81A0003208DF82D
:102E8000190000208DF81B0005A91A48FDF77AFDEE
:102E90001948FEF7FBF86846FEF7EBF94FF482702D
:102EA000ADF802004FF44040ADF800004FF4007060
:102EB000ADF80A000020ADF80C0069460E48FEF798
:102EC0000BF901210C48FEF728FA01210A48FEF708
:102ED000E6F901210848FEF711FA40210548FDF7FF
:102EE000CDFD7720FFF758FFFFF714FF07B000BDB7
:102EF00000040240000802400038004000B58BB0DA
:102F000001210220FDF7B7FF4020099002208DF833
:102F1000280003208DF8290000208DF82A000220C7
:102F20008DF82B0009A93448FDF72CFD022206215B
:102F30003148FDF7B2FD952007908B20ADF81800C1
:102F40000020ADF82000ADF81A0006A92B48FEF7C6
:102F50008CFB6020ADF804000120ADF806000020D5
:102F60000390ADF8100001A92448FEF713FC0821D6
:102F70002248FEF79CFD01212048FEF7E1FB0121DC
:102F80001E48FEF7FBFB0BB000BD70B504468C205D
:102F900060431B490860952018492C3108600025C2
:102FA00012E016482C300068401CC0081349343128
:102FB00008604620FFF727FD0020104934310860E3
:102FC0004620FFF720FD6D1CA542EADB70BD0B4AD1
:102FD0002C321268521C9208084B34331A60094A8A
:102FE00092FBF1F28C2392FBF3F2521E034B2C3333
:102FF0001A60034A1060704700000240000400405D
:103000003800002000BD010500B58DB00121080287
:10301000FDF742FF3820019003208DF808000020C2
:103020008DF80B0001A93348FDF7ACFC032001909B
:103030008DF8080000208DF80B0001A92E48FDF73F
:10304000A1FC3020019003208DF8080000208DF8AD
:103050000B0001A92948FDF795FC002003904FF4CF
:1030600080300490002005904FF47060069003A813
:10307000FDF794F9002007908DF820008DF82100CD
:103080000A900B9001208DF8300007A91C48FDF72D
:1030900056F9012240F205211948FDF737FB0121BD
:1030A0001748FDF792F980211448FDF7E9FC022149
:1030B0001248FDF7E5FC80210E48FDF7E1FC0DB05C
:1030C00000BD70B505460E46144623460122314622
:1030D0002846FDF7BAF92846FDF713FA00BF02218A
:1030E0002846FDF72FFB0028F9D02846FDF745FAC2
:1030F00070BD0000000002400004024000080240D1
:103100000020014010B504220321C848FFF7D9FF71
:10311000C74908600846006840F2293148434FF427
:103120004B6190FBF1F0C349086010BD10B504225B
:103130000921BE48FFF7C5FFBF49086004221146B8
:10314000BA48FFF7BEFFBD49086004220821B7480E
:10315000FFF7B7FFBA49086004220521B348FFF71B
:10316000B0FFB8490860FFF735FC04468021B64837
:10317000FDF784FC21463C20FFF75AFC042209217C
:10318000AA48FFF79EFFAC490968401AAA4908609F
:103190008021AD48FDF774FCA7480068002802DADA
:1031A0000020A549086021468C20FFF741FC022140
:1031B000A548FDF763FC2146C820FFF739FC04222F
:1031C00011469A48FFF77DFF9C490968401A9B49C0
:1031D000086002219C48FDF753FC984800680028CD
:1031E00002DA00209549086021464FF48C70FFF701
:1031F0001FFC80219548FDF741FC21464FF4AA7041
:10320000FFF716FC042208218848FFF75AFF8C4973
:103210000968401A8A490860042205218348FFF79B
:1032200050FF88490968401A86490860802187480C
:10323000FDF726FC82480068002802DA0020804959
:10324000086080480068002802DA00207D49086094
:10325000FFF758FF784800687D49096848434FF4F4
:103260007A7190FBF1F074490860744800687849FD
:10327000096848434FF47A7190FBF1F06F49086098
:103280006F4800687249096848434FF47A7190FBAF
:10329000F1F06B4908606B4800686D490968484364
:1032A0004FF47A7190FBF1F06649086010BD70B57B
:1032B000142500206749086000240AE004220F2139
:1032C0005A48FFF7FEFE63490968084461490860EF
:1032D000641CAC42F2DB4CF2503090FBF5F05D49DF
:1032E000096848435B490860084600685A49401A23
:1032F00058490860084600684CF2503190FBF1F0E4
:10330000544908600868C11700EB91718910514A4F
:103310001160524800681146096808444F49086026
:1033200070BD10B543480068B0F52F7F75DA72E0C4
:103330004BA0FFF765FC4FF400614448FDF7A0FB8C
:103340004FF480514148FDF79BFB4FF480613E48AC
:10335000FDF796FB4FF400613B48FDF791FB4FF4FE
:1033600080513948FDF78CFB04213F48FDF788FB6D
:103370004FF480713548FDF783FB10213B48FDF782
:103380007FFB4FF480513948FDF77AFB04212F4829
:10339000FDF776FB4FF400613448FDF771FBC82060
:1033A000FFF731FBFFF7B6FC4FF400612748FDF74C
:1033B00065FB4FF480512548FDF760FB4FF48061B9
:1033C0002148FDF75BFB4FF400611F48FDF756FBFA
:1033D0004FF480511C48FDF751FB04212248FDF7B2
:1033E0004DFB4FF480711948FDF748FB10211F4831
:1033F000FDF744FB4FF480511C48FDF73FFB0421CF
:103400001248FDF73BFB4FF400611848FDF736FB0F
:10341000C820FFF7F8FA8BE7FFE706480068FFF7D8
:1034200050FC4FF47A70FFF7EEFA10BD0020014017
:103430004000002044000020480000204C000020F4
:10344000500000205400002000080240000002400C
:103450003C0000205C00002020C38A0560000020A2
:103460004C62617400000000000C02400004024045
:103470000948804709480047FEE7FEE7FEE7FEE708
:10348000FEE7FEE7FEE7FEE7FEE7FEE70448054944
:10349000054A064B704700003336000889010008D2
:1034A000D8000020D8060020D8020020D802002032
:1034B0000CB50020019000909F48006840F48030D7
:1034C0009D49086000BF9C48006800F400300090EF
:1034D0000198401C0190009818B90198B0F5A06FB0
:1034E000F1D19548006800F4003010B1012000903F
:1034F00001E0002000900098012847D18E4840301C
:10350000006840F080508C49403108608B4800686A
:1035100040F480408949086087480830006886493F
:10352000083108600846006840F40040086008461A
:10353000006840F4A05008608148091F0860081F17
:10354000006840F08070091F086000BF7A4800687A
:1035500000F000700028F9D040F205607949086059
:1035600075480830006820F003007349083108608E
:103570000846006840F00200086000BF6E4808304E
:10358000006800F00C000828F8D151E06A48006893
:103590006D490840684908600846006840F001002D
:1035A000086065484030006840F080506249403112
:1035B00008606248006840F48040604908605E48E6
:1035C000083000685C49083108600846006840F42B
:1035D000004008600846006840F4A0500860584861
:1035E000091F0860081F006840F08070091F08600C
:1035F00000BF5148006800F000700028F9D040F288
:103600000560504908604C480830006820F003000D
:103610004949083108600846006840F00200086027
:1036200000BF45480830006800F00C000828F8D1B9
:103630000CBD10B54548006840F47000434908606F
:103640003D48006840F001003B49086000203A49CD
:1036500008310860384800683B490840364908602E
:103660003B48091D0860081F006820F48020091FDE
:103670000860002030490C310860FFF719FF4FF057
:10368000006032498039086010BD70B5002000220A
:10369000022300240221284D08352D6805F00C0076
:1036A00020B1042806D0082834D107E0294D2A4E3D
:1036B000356033E0294D284E35602FE01E4D2D1D1D
:1036C0002D68C5F380541C4D2D1D2D6805F03F015C
:1036D00054B1224DB5FBF1F5174E361D3668C6F3D1
:1036E000881605FB06F209E01A4DB5FBF1F5124EFE
:1036F000361D3668C6F3881605FB06F20E4D2D1DE5
:103700002D68C5F301456D1C6B00B2FBF3F5124E3D
:10371000356003E00F4D104E356000BF00BF064D11
:1037200008352D68C5F303150D4E705D0A4D2D68E3
:10373000C540094E356070BD003802400070004041
:1037400010540007003C0240FFFFF6FE88ED00E049
:10375000103000240024F4006400002000127A00DD
:10376000680000200FB41CB5074B06AA7B446946CD
:103770000090059800F095FB0020694600F0A4FB3E
:103780001CBC5DF814FB0000590700000FB41CB509
:103790000C0007AA009001D02044401E074B7B4438
:1037A00069460190069800F07CFB002C03D0694626
:1037B000002000F089FB1CBC5DF814FB3107000001
:1037C00070B5044685690068C10601D5302600E061
:1037D0002026C00707D070BDD4E9012130469047AC
:1037E000206A401C20626D1EF6D570BD70B504467F
:1037F00085690078C00707D170BDD4E90121202078
:103800009047206A401C20626D1EF6D570BD0000F6
:103810002DE9F0410646002410687529314616A5A9
:1038200010D0AFF30080002802DA404213A507E071
:1038300031688A0701D512A502E0490704D511A510
:10384000012401E0AFF3008000210A2206F12407E1
:1038500009E0B0FBF2FCB0FBF2F302FB1C003030DD
:1038600078541846491C0028F3D123462A4630468E
:10387000BDE8F04100F0A7B8000000002D000000F6
:103880002B000000200000002DE9F05F894604466F
:103890004FF0000ADFF824B1FB44C0F820A0204616
:1038A000E168884700287DD0252806D0D4E9012189
:1038B0009047206A401C2062F1E700255F462046C1
:1038C000E16888472028064607DB312E05D2B81963
:1038D00010F8200C08B10543F1E7A80701D525F041
:1038E0000405C4F81CA00027C4F818A02A2E09D08B
:1038F000304601F04CF838B304EB8708303EC8F886
:10390000186019E059F8041B204604EB8702916106
:10391000E1688847012F064618D1E069002820DABF
:1039200025F020051DE0D8F8180000EB800006EB1C
:1039300040003038C8F818002046E168884706463D
:1039400001F025F80028EED1012F0AD02E2E08D143
:103950002046E16888477F1C0646022F45F0200577
:10396000C4DBA069002803DA404245F00105A061EC
:10397000E80701D025F01005A6B1A6F141001928ED
:1039800002D8203645F400654A4631462046256077
:103990004D46FCF733FC60B1012807D0ED1D25F042
:1039A000070000E007E000F1080978E705F10409E5
:1039B00075E730467AE7206ABDE8F09F52150000AF
:1039C0007047704770472DE9F0470D46994692467B
:1039D000044600F124080168880604D5E06921F056
:1039E0001001216000E00120A84201DD471B00E03A
:1039F0000027A1697A1902EB0900081AA061207852
:103A0000C00602D42046FFF7DBFE002608E0D4E91A
:103A100001211AF806009047206A401C761C20629B
:103A20004E45F4DB2078C0060AD52046FFF7C8FED5
:103A300006E0D4E9012130209047206A401C206232
:103A4000381EA7F10107F4DC07E0D4E9012118F8DA
:103A500005009047206A401C2062281EA5F1010540
:103A6000F3DC2046FFF7C2FE2078000602D50220D4
:103A7000BDE8F0870120FBE770472DE9FF4F0C46BA
:103A80001E464FF0FF378BB0D2E90001DDF86080B1
:103A90000A908A46C1F30A5505B93D4600210846F9
:103AA0004FF00000BAF1000F00F4400005DA00EB1F
:103AB00080004FF4400101EA50004FEA9059B9F1FB
:103AC000010F00DDB9460A9850EA4A000ED044F6CC
:103AD0001050A5F2FF3545432F14B8F1000F1ED04A
:103AE0007542291E1EDDC9F100021CE0B8F1010F6C
:103AF0004FF0000001D0302103E0F24305E02154F3
:103B0000401CB042FBDB30460022002121540B99BF
:103B1000C1F80880C1E900200FB0BDE8F08FBD1BDF
:103B20006D1CDEE74A4600DA694206A800F064FA36
:103B300006AB93E8070003AB83E8070050460A99F9
:103B400000F045FB8DE80700A0F500501F380090FD
:103B50000398002D0ADD42F21F014A460844002363
:103B600003A90390684600F0AEFD09E0A0F50050FF
:103B70004A461F38002303A90390684600F0B8FDA9
:103B80008DE807000004000C03D04FF0FF3041081F
:103B900000E01046B8F1000F03D000220092154655
:103BA0001EE0751E05D400F0A1F9303262556D1E7D
:103BB000F9D5B3460122084302D000227F1C04E05D
:103BC0002078302801D100227F1E002A099784D056
:103BD0001DE0112D07DA00F089F9303262556D1CB5
:103BE00050EA0102F5D1084302D00098C8B10EE0B6
:103BF0000021681E05E0235C625C63542254401E71
:103C0000491C8142F7DBAB46A81B401E09900020EF
:103C100004F80B000B98099AC0F80880C0E9002B43
:103C20007AE711264FF0000857E72DE9F04F884654
:103C30000446D21D22F0070191B0D1E90001CDE97F
:103C40000A0100F08CFE02460B98C00F01D02D2017
:103C500007E02068810701D52B2002E0202101EA3E
:103C6000C000032A099001D0072A05DB034641461C
:103C7000204600F081F90BE12078800601D5E0694B
:103C800000E00620B8F1650F814606D0B8F1660F56
:103C900018D0B8F1670F70D131E00020B9F1110FE1
:103CA000009001DB112301E009F101030AAA01A937
:103CB0000CA8FFF7E2FEDDE90C70002609F1010512
:103CC000834647E001204B4600904FF000470AAA88
:103CD00001A90CA8FFF7D1FEDDE90DB00C995D46F6
:103CE000002610B909F101000D18B9EB050003D445
:103CF000C0F1FF3609F10105A5EB09002BE0B9F190
:103D0000010F01DA4FF001090020B9F1110F009005
:103D1000484601DD112300E003460AAA01A90CA8C8
:103D2000FFF7ABFEDDE90C704D4600268346207898
:103D300000070AD4AB4500DA5D4601A8012D04DD79
:103D4000411911F8011C302907D04F4502DA17F14B
:103D5000040F04DA012082460FE06D1EEEE7002F0B
:103D600002DCED1B3E4403E0781CA84200DD7D1C14
:103D7000B81B00F1010A4FF000472078000703D478
:103D8000AA4501DB4FF0FF3A0021B7F1004F0DF1DA
:103D900043088DF8431024D002202B23002F01DA92
:103DA0007F422D230A21021EA0F1010000DC5FB139
:103DB00097FBF1FC97FBF1F201FB1C7C17460CF121
:103DC000300C08F801CDEEE7A8F10100037021885E
:103DD000090501D5452100E06521A0F1010800F8A1
:103DE000011C09980FA9A1EB0807FF1D00B10120D4
:103DF000411901EBEA70A1693844081A401EA0611C
:103E00002078C00602D42046FFF7DAFC099828B1D2
:103E1000D4E901219047206A401C20622078C00626
:103E200022D52046FFF7CCFC1EE0002E04DBB34574
:103E300002DD01A8805D00E03020D4E90121904737
:103E4000206A401C2062761CAAF101005FEA000A89
:103E50000AD100F047F8C0680168405CD4E901214C
:103E60009047206A401C2062281EA5F10105DCDC79
:103E700007E0D4E9012118F8010B9047206A401CA3
:103E80002062381EA7F10107F3DC2046FFF7AEFCE5
:103E9000032011B041E6000001694A1C0261087864
:103EA000704700B58FB0CDE901310021059105497A
:103EB0007944CDE9031011466846FFF7E5FC0FB0E1
:103EC00000BD0000E5FFFFFF0A6802F8010B0A6071
:103ED0007047D1E900239A4202D2531C0B60107044
:103EE00070470000004870479800002030B5B0F1DE
:103EF0000A024FEA900E71F100034EEA817EB0EBA8
:103F00000E0061EB91014FEA101E4EEA017E10EBAC
:103F10000E0041EB11114FEA102E4EEA016E10EB2C
:103F20000E0041EB11214FEA104E4EEA014E10EB0C
:103F30000E0041EB1141401841F100014FEAD00061
:103F400040EA41704FEAD10110EB80054FEA81044D
:103F500044EA907444EB01046D1944EB0404521BD1
:103F6000A3414FF0000348BF0A3200D530BD401CCA
:103F700041F1000130BD00002DE9F0411F4604462B
:103F800003260168072A01F4006004DB08B116A5C6
:103F900005E016A503E008B115A500E015A521F080
:103FA00010002060A069C01EA0610FB1401EA0617A
:103FB0002046FFF705FC4FB1D4E901213846904770
:103FC000206A401C2062C01C206206E0206AFAE7DA
:103FD000D4E9012115F8010B9047761EF8D220464E
:103FE000FFF704FCBDE8F0814E414E006E616E00AB
:103FF000494E4600696E66002DE9F0478146164637
:104000008AB0354878440DC88DE80D0032487844B0
:10401000801C03AC0DC884E80D0041F69B300844B9
:10402000372190FBF1F290FBF1F5A5F1800501FB42
:1040300012041B3C02D56442012000E00020DFF89E
:1040400098A080460027FA44AAF1BE0A0EE0E007D5
:104050000AD03246684607EB470101230AEB81018B
:1040600000F046FB8DE8070064107F1C002CEED1A9
:10407000194F7F44AE3F19E0E80715D007EB041055
:104080000DF1180A90E80E008AE80E00C068F042B0
:1040900001D1981908903246012306A903A800F01F
:1040A00027FB03AB83E807006D10641C002DE3D1F0
:1040B0004FF0010332466946B8F1000F03A802D061
:1040C00000F001FB01E000F013FBC9E90001C9F8B1
:1040D00008200AB0BDE8F087740E00000048704761
:1040E000780000207546FFF7F9FFAE4605006946E7
:1040F000534620F00700854618B020B5FFF7C6F9F3
:10410000BDE820404FF000064FF000074FF00008D8
:104110004FF0000B21F00701AC46ACE8C009ACE859
:10412000C009ACE8C009ACE8C0098D46704710B5BD
:104130000446AFF300802046BDE81040FCF77DB890
:104140004FF0013C50F8042B51F8043B9A4221D126
:10415000A2EB0C03934313EACC1317D150F8042BB2
:1041600051F8043B9A4215D1A2EB0C03934313EA96
:10417000CC130BD150F8042B51F8043B9A4209D1CF
:10418000A2EB0C03934313EACC13DBD04FF00000F7
:10419000704700BFD01A01BAB1FA81F101F01801DD
:1041A00022FA01F0CB40C1F12001DBB2C0B2C01A4B
:1041B0002CFA01F3D11A914311EAC311E6D17047E9
:1041C00001491820ABBEFEE72600020070475FEAF7
:1041D000400C08BF91F0000F4FEA8C234FEAC12238
:1041E00043EA51514FEA1C5018BF00F5F0404FEA26
:1041F000300018BF41F000415FEA6C5C00F029809C
:10420000BCF1FF3F08BF40F080407047130C06BF71
:1042100012044FF0100C4FF0000C130E04BF1202EA
:104220000CF1080C130F04BF12010CF1040C930FD6
:1042300004BF92000CF1020CD30F04BF52000CF12A
:10424000010C11464FF00002A0F11F00A0EB0C0082
:10425000704711F0004F08BF704731F000413FF444
:10426000D5AF0B0C06BF09044FF0100C4FF0000C3B
:104270000B0E04BF09020CF1080C0B0F04BF09015F
:104280000CF1040C8B0F04BF89000CF1020CCB0F56
:1042900004BF49000CF1010CCCF12003A0EB0C0091
:1042A00022FA03F302FA0CF241EA030100F10100E1
:1042B000704720F07F4C80EA030023F07F47ACEB8F
:1042C000070303F57C5300F0004003F1FF032DE9E1
:1042D00080494FEA154B09B44FEA144325EA0B4EC7
:1042E00024EA03480FF2042606EB132749083E7818
:1042F0005FEA320203FB0667C7F5000707FB06F615
:104300004FEA54374FEAD64606F1020607FB066C21
:10431000CCF1005C4FEA1C472CEA074C07FB06F483
:104320000CFB06F504EB15464FEA961634BF002049
:104330004FF000404FEAD13706FB07FC4FEA1C4C18
:104340000CFB0BF7D21B03FB0CF761EB07010CFB1B
:104350000EF7B0EB074072EB17420CFB08F734BFC7
:10436000A2EB0742B2EB074261EB17414FEA0C4464
:104370004FEA910706FB07FC4FEA1C4C0CFB0BF7BE
:10438000B0EBC74072EB573203FB0CF734BFA2EB24
:10439000C742B2EBC74261EB57310CFB0EF7B0EBF3
:1043A000C70072EB57720CFB08F734BFA2EBC702D1
:1043B000B2EBC70261EB5771039F4FEA816141EA9B
:1043C000921104EBCC044FEAD1374FEA826206FB2C
:1043D00007FC42EA90124FEA80604FEA1C4C0CFB4B
:1043E0000BF7D21B03FB0CF761EB07010CFB0EF77D
:1043F000B0EB074072EB17420CFB08F734BFA2EB9F
:104400000742B2EB074261EB17414FEA8C554FEA86
:10441000910704EB9C2406FB07FC4FEA1C4C0CFBA9
:104420000BF7B0EBC74072EB573203FB0CF734BF0E
:10443000A2EBC742B2EBC74261EB57310CFB0EF760
:10444000B0EBC70072EB57720CFB08F734BFA2EB5E
:10445000C702B2EBC70261EB577115EB4C254FEA6F
:10446000816141EA92114FEA82624FEAD13742EA12
:10447000901206FB07FC44F100044FEA80604FEA0B
:104480001C4C0CFB0BF7D21B03FB0CF761EB070179
:104490000CFB0EF7B0EB074072EB17420CFB08F772
:1044A00034BFA2EB0742B2EB074261EB174115EBB9
:1044B0001C154FEA813141EA92414FEA823242EAC9
:1044C00090424FEA80304FEA0C7644F1000448EA0B
:1044D00003434EEA0B484FF0000EB2EB080C71EBB1
:1044E000030724BF624639464EEB0E0E4FF0000B19
:1044F0000018524149414BEB0B0BB2EB080C71EB2E
:1045000003077BF1000B24BF624639464EEB0E0ECB
:104510004FF0000B0018524149414BEB0B0BB2EB33
:10452000080C71EB03077BF1000B24BF6246394690
:104530004EEB0E0E51EA020718BF46F0010616EBCD
:104540000E7655F1000254F1000103D5BDE8890152
:10455000BDE80088BDE88901BDE80048B6195241B0
:1045600041EB0101A3F10103704780807F7E7D7CD8
:104570007B7A7978777676757473727171706F6EF5
:104580006E6D6C6C6B6A6A696868676666656464A0
:10459000636362616160605F5F5E5E5D5D5C5C5B2A
:1045A0005B5A5A5959585857575656555555545499
:1045B000535352525251515050504F4F4F4E4E4DF7
:1045C0004D4D4C4C4C4B4B4B4A4A4A494949484843
:1045D0004847474747464646454545444444444383
:1045E00043434342424242414141002B9C4630D426
:1045F00077002BD01CB54FEA370703B44FF01000FB
:104600004FF01001BAF1000F06D0BCF1000FDCBF73
:1046100040F0080040F008014FF000000FBCBDE87A
:1046200010400BF1010BBBF1010F08BF5FEA170748
:1046300022BF12F1010211F101014FF0004143F1DB
:10464000000300F0004043EA00007047F9D3570828
:10465000D0E746EA064613F1400F4FEA16461FDD43
:1046600013F1200FDFBF16430A46002120335B42BF
:10467000BED0C3F1200746EA064602FA07F74FEA22
:10468000164646EA0706C3F1200722FA03F201FAAA
:1046900007F721FA03F14FF0000342EA0702A7E708
:1046A00046EA020646EA06464FEA164646EA01068A
:1046B000BCBF46EA0646360C4FF000034FF000023E
:1046C0004FF0000194E72DE9804C9A46934670B470
:1046D00091E8380007C831EA400C48BF34EA430C7F
:1046E00003D5FFF7E6FDFFF780FFF0BCBDE8008CC7
:1046F0002DE9804C9A46934670B491E8380007C87B
:1047000010F0804F08BF13F0804F03D100F005F880
:10471000FFF76BFFF0BCBDE8008C20F07F4780EA1C
:10472000030023F07F4C07EB0C03A3F57C5300F050
:104730000040A3F1FE0392F0000F00F0B38095F06B
:10474000000F00F077802DE901494FEA11404FEA50
:10475000144621EA004800FB06FC24EA064708FB51
:1047600006F607FB08F800FB07F718EB06484CEBCA
:10477000164C4FEA124B18EB07484FEA15464CEB24
:10478000174022EA0B4E0BFB06FC25EA06470EFB00
:1047900006F607FB0EFE0BFB07F71EEB064E4CEB77
:1047A000164C4FF000061EEB074E4CEB174B18EB68
:1047B0000B0840F1000018EB0E0B58EB000840F11D
:1047C00000008F1A4FF000013CBFC943661B14BFA5
:1047D000B5EB040C00213CBFC943F61B4FEA17445C
:1047E0004EEA8E0E27EA04454FEA1C4704FB076297
:1047F0002CEA074C05FB07F70CFB05F604FB0CFC49
:1048000016EB074642EB174216EB0C4642EB1C42F6
:104810001BEB060658EB0202414146EA9E0601D513
:10482000BDE80189B619524141EB0101A3F1010331
:10483000BDE801894FEA14454FEA114724EA0546CD
:1048400021EA074C05FB07F406FB07F70CFB06F112
:1048500005FB0CFC11EB074144EB17444FEA1247F0
:1048600011EB0C4144EB1C4422EA074C05FB07F218
:1048700006FB07F70CFB06F605FB0CFC16EB0746E0
:1048800042EB174216EB0C4642EB1C456A1854F1FA
:10489000000148BF7047B619524141EB0101A3F135
:1048A0000103704795F0000F37D04FEA11424FEAED
:1048B000144721EA024624EA074C02FB07F106FBF3
:1048C00007F70CFB06F402FB0CFC14EB074441EB6E
:1048D00017414FEA154714EB0C4441EB1C4125EA04
:1048E000074C02FB07F506FB07F70CFB06F602FB7D
:1048F0000CFC16EB074645EB174516EB0C4645EB53
:104900001C42121951F1000148BF7047B6195241BB
:1049100041EB0101A3F1010370474FEA14454FEA4F
:10492000114724EA054621EA074C05FB07F106FB7F
:1049300007F70CFB06F24FF0000605FB0CFC12EB30
:10494000074241EB174112EB0C4251EB1C4148BFAF
:104950007047921841EB0101A3F10103704703B4C2
:1049600001984100009850EAC12018BF04204A0D68
:1049700018BF40F0010040F2FF72B2EB515F08BF78
:1049800040F00200012808BF052002B0704730380F
:104990000A2801D2012070470020704710B5002975
:1049A0000AD00878002807D005487844FFF7C8FBEC
:1049B000002801D0002010BD0248784410BD00003E
:1049C0000A050000020500000808A0F500114FEAE2
:1049D0003101704743004FEAD30C4FEA3C0C43408F
:1049E0001FBF40070CF1605113F0FE4F70471CF0E1
:1049F000006F03D100200CF0004170470CF0004321
:104A000043EA507010B540EACC0000F00EF800BF49
:104A1000000000924FEA0001FFF7D6BF4FF00041BF
:104A20004FF00000A1F5002170470EF1020E2EF0AC
:104A3000030E5EF8044B244204D44FEA4102B2F163
:104A40007F4F11D84FEA4003B3F17F4F0CD80ED1FE
:104A50004FEAD07CB2F17F4F0CEB4C0C0CF1020C06
:104A600008BF4CEBD17C04E04FF0080C01E04FEAAA
:104A7000D17C0CEB4C0324FA03F404F00704B4F1EA
:104A8000040C06D20EEB840CBDE810404CF0010C77
:104A90006047DFE80CF0070802024FF00040A0F585
:104AA000800010BD0846420018BFD2F1807288BF56
:104AB00000F0004010BD4FF04070E1EE100A70476A
:104AC000FFF7B3B880808080804040404040202085
:104AD00020202010101010100808080808040404F2
:104AE00004040202020202010101010180808080AF
:104AF00080C0C0C0C0C0E0E0E0E0E0F0F0F0F0F066
:104B0000F8F8F8F8F8FCFCFCFCFCFEFEFEFEFEFFEC
:104B1000FFFFFFFF7F7F7F7F7F3F3F3F3F3F1F1FA5
:104B20001F1F1F0F0F0F0F0F0707070707030303B1
:104B30000303010101010100000000007E42434225
:104B40007E7E6263627E7E7273727E7E7A7B7A7E06
:104B50007E7E7F7E7E040E1504047C7272427C7C15
:104B60004272727C000000000000002F000000076D
:104B7000000700147F147F14242A7F2A12C4C8104F
:104B8000264636495522500005030000001C2241EC
:104B9000000041221C0014083E081408083E0808C2
:104BA0000000503000101010101000606000002055
:104BB000100804023E5149453E00427F40004261D8
:104BC0005149462141454B311814127F1027454564
:104BD00045393C4A4949300171090503364949497B
:104BE00036064949291E00363600000056360000B8
:104BF0000814224100141414141400412214080251
:104C000001510906324959513E7E1111117E7F49E9
:104C10004949363E414141227F4141221C7F494959
:104C200049417F090909013E4149493A7F0808087D
:104C30007F00417F41002040413F017F0814224115
:104C40007F404040407F020C027F7F0408107F3E7F
:104C50004141413E7F090909063E4151215E7F09DC
:104C6000192946464949493101017F01013F404028
:104C7000403F1F2040201F3F4038403F631408142E
:104C80006307087008076151494543007F414100AF
:104C900002040810200041417F0004020102044088
:104CA00040404040000102040020545454787F48A2
:104CB0004444383844444420384444487F385454A9
:104CC0005418087E0901020C5252523E7F08040417
:104CD0007800447D40002040443D007F102844007F
:104CE00000417F40007C041804787C080404783874
:104CF000444444387C14141408081414187C7C08A8
:104D00000404084854545420043F4440203C40408C
:104D1000207C1C2040201C3C4030403C4428102873
:104D2000440C5050503C4464544C440008364100FC
:104D300000007F0000004136080008082A1C08080F
:104D40001C2A080844340F34442C407F000C4030A7
:104D50000F30407F551D35574A2A1F2A4A7F49493F
:104D6000497F403F15157F49291F29490021454B9F
:104D700031020F020F0209097F0909080808080813
:104D800014141414142A2A2A2A2A7F4947497F49CD
:104D9000794F6959241D060C34083F484828407E45
:104DA000007E40443C07744C04027F020404047FEC
:104DB00004047D5555577D12127E121145251F455D
:104DC0003D1F157F151F31494543217D150F557D29
:104DD00011217F010166447F44667E2222227E08E3
:104DE0000C7E0C8010307E30107F7F7F7F7F040030
:104DF0000008000000000000000200010000100098
:104E000002400000000000A000000000054000007B
:104E1000000000C8000000000C4000000000409CA2
:104E200000000000194000000020BCBE000000008F
:104E300034400000BFC91B8E00000004B5400000D4
:104E4000504BCFD06607E2CF010000006C4100005C
:104E50003E8251AADFEEA73401000000D9420000D3
:104E6000DCB5A0E23A301F97FFFFFFFFB44500001A
:104E7000FD25A0C8E9A3C14FFFFFFFFFFF3F0000D2
:104E80000000008000000000FF3F000000000080E4
:104E900000000000D04E0008000000207800000054
:104EA000C4010008484F0008780000206006000098
:104EB000E00100081C00000043000000F8FFFFFFB5
:104EC0000C0000000E0000000F0000002E0000008B
:104ED00000000000010203040102030406070809A0
:104EE00002000000000000000000000000000000C0
:104EF00000000000000000000000000000000000B2
:104F0000000000000000000000000000E8030000B6
:104F10000000000000000000000000000000000091
:104F20000000000000000000000000000000000081
:104F300000000000007A030A0000000000000000EA
:084F4000010203040607080941
:040000050800018965
:00000001FF
